{
	"contracts/paylock.sol": {
		"Paylock": {
			"abi": [
				{
					"inputs": [],
					"stateMutability": "nonpayable",
					"type": "constructor"
				},
				{
					"inputs": [],
					"name": "collect_1_N",
					"outputs": [],
					"stateMutability": "nonpayable",
					"type": "function"
				},
				{
					"inputs": [],
					"name": "collect_1_Y",
					"outputs": [],
					"stateMutability": "nonpayable",
					"type": "function"
				},
				{
					"inputs": [],
					"name": "collect_2_N",
					"outputs": [],
					"stateMutability": "nonpayable",
					"type": "function"
				},
				{
					"inputs": [],
					"name": "collect_2_Y",
					"outputs": [],
					"stateMutability": "nonpayable",
					"type": "function"
				},
				{
					"inputs": [],
					"name": "signal",
					"outputs": [],
					"stateMutability": "nonpayable",
					"type": "function"
				}
			],
			"devdoc": {
				"methods": {}
			},
			"evm": {
				"assembly": "    /* \"contracts/paylock.sol\":73:979  contract Paylock {\r... */\n  mstore(0x40, 0x80)\n    /* \"contracts/paylock.sol\":221:298  constructor() public {\r... */\n  callvalue\n    /* \"--CODEGEN--\":8:17   */\n  dup1\n    /* \"--CODEGEN--\":5:7   */\n  iszero\n  tag_1\n  jumpi\n    /* \"--CODEGEN--\":30:31   */\n  0x00\n    /* \"--CODEGEN--\":27:28   */\n  dup1\n    /* \"--CODEGEN--\":20:32   */\n  revert\n    /* \"--CODEGEN--\":5:7   */\ntag_1:\n    /* \"contracts/paylock.sol\":221:298  constructor() public {\r... */\n  pop\n    /* \"contracts/paylock.sol\":258:271  State.Working */\n  0x00\n    /* \"contracts/paylock.sol\":253:255  st */\n  0x01\n  0x00\n    /* \"contracts/paylock.sol\":253:271  st = State.Working */\n  0x0100\n  exp\n  dup2\n  sload\n  dup2\n  0xff\n  mul\n  not\n  and\n  swap1\n  dup4\n  0x05\n  dup2\n  gt\n  iszero\n  tag_4\n  jumpi\n  invalid\ntag_4:\n  mul\n  or\n  swap1\n  sstore\n  pop\n    /* \"contracts/paylock.sol\":289:290  0 */\n  0x00\n    /* \"contracts/paylock.sol\":282:286  disc */\n  dup1\n    /* \"contracts/paylock.sol\":282:290  disc = 0 */\n  dup2\n  swap1\n  sstore\n  pop\n    /* \"contracts/paylock.sol\":73:979  contract Paylock {\r... */\n  dataSize(sub_0)\n  dup1\n  dataOffset(sub_0)\n  0x00\n  codecopy\n  0x00\n  return\nstop\n\nsub_0: assembly {\n        /* \"contracts/paylock.sol\":73:979  contract Paylock {\r... */\n      mstore(0x40, 0x80)\n      callvalue\n        /* \"--CODEGEN--\":8:17   */\n      dup1\n        /* \"--CODEGEN--\":5:7   */\n      iszero\n      tag_1\n      jumpi\n        /* \"--CODEGEN--\":30:31   */\n      0x00\n        /* \"--CODEGEN--\":27:28   */\n      dup1\n        /* \"--CODEGEN--\":20:32   */\n      revert\n        /* \"--CODEGEN--\":5:7   */\n    tag_1:\n        /* \"contracts/paylock.sol\":73:979  contract Paylock {\r... */\n      pop\n      jumpi(tag_2, lt(calldatasize, 0x04))\n      shr(0xe0, calldataload(0x00))\n      dup1\n      0x4c3bc76e\n      eq\n      tag_3\n      jumpi\n      dup1\n      0x640d090b\n      eq\n      tag_4\n      jumpi\n      dup1\n      0x94f5c52d\n      eq\n      tag_5\n      jumpi\n      dup1\n      0x953884de\n      eq\n      tag_6\n      jumpi\n      dup1\n      0xe3ed5166\n      eq\n      tag_7\n      jumpi\n    tag_2:\n      0x00\n      dup1\n      revert\n        /* \"contracts/paylock.sol\":439:568  function collect_1_Y() public {\r... */\n    tag_3:\n      tag_8\n      tag_9\n      jump\t// in\n    tag_8:\n      stop\n        /* \"contracts/paylock.sol\":306:431  function signal() public {\r... */\n    tag_4:\n      tag_10\n      tag_11\n      jump\t// in\n    tag_10:\n      stop\n        /* \"contracts/paylock.sol\":847:974  function collect_2_N() external {\r... */\n    tag_5:\n      tag_12\n      tag_13\n      jump\t// in\n    tag_12:\n      stop\n        /* \"contracts/paylock.sol\":576:705  function collect_1_N() external {\r... */\n    tag_6:\n      tag_14\n      tag_15\n      jump\t// in\n    tag_14:\n      stop\n        /* \"contracts/paylock.sol\":713:839  function collect_2_Y() external {\r... */\n    tag_7:\n      tag_16\n      tag_17\n      jump\t// in\n    tag_16:\n      stop\n        /* \"contracts/paylock.sol\":439:568  function collect_1_Y() public {\r... */\n    tag_9:\n        /* \"contracts/paylock.sol\":495:510  State.Completed */\n      0x01\n        /* \"contracts/paylock.sol\":489:510  st == State.Completed */\n      0x05\n      dup2\n      gt\n      iszero\n      tag_19\n      jumpi\n      invalid\n    tag_19:\n        /* \"contracts/paylock.sol\":489:491  st */\n      0x01\n      0x00\n      swap1\n      sload\n      swap1\n      0x0100\n      exp\n      swap1\n      div\n      0xff\n      and\n        /* \"contracts/paylock.sol\":489:510  st == State.Completed */\n      0x05\n      dup2\n      gt\n      iszero\n      tag_20\n      jumpi\n      invalid\n    tag_20:\n      eq\n        /* \"contracts/paylock.sol\":480:512  require( st == State.Completed ) */\n      tag_21\n      jumpi\n      0x00\n      dup1\n      revert\n    tag_21:\n        /* \"contracts/paylock.sol\":528:540  State.Done_1 */\n      0x02\n        /* \"contracts/paylock.sol\":523:525  st */\n      0x01\n      0x00\n        /* \"contracts/paylock.sol\":523:540  st = State.Done_1 */\n      0x0100\n      exp\n      dup2\n      sload\n      dup2\n      0xff\n      mul\n      not\n      and\n      swap1\n      dup4\n      0x05\n      dup2\n      gt\n      iszero\n      tag_22\n      jumpi\n      invalid\n    tag_22:\n      mul\n      or\n      swap1\n      sstore\n      pop\n        /* \"contracts/paylock.sol\":558:560  10 */\n      0x0a\n        /* \"contracts/paylock.sol\":551:555  disc */\n      0x00\n        /* \"contracts/paylock.sol\":551:560  disc = 10 */\n      dup2\n      swap1\n      sstore\n      pop\n        /* \"contracts/paylock.sol\":439:568  function collect_1_Y() public {\r... */\n      jump\t// out\n        /* \"contracts/paylock.sol\":306:431  function signal() public {\r... */\n    tag_11:\n        /* \"contracts/paylock.sol\":357:370  State.Working */\n      0x00\n        /* \"contracts/paylock.sol\":351:370  st == State.Working */\n      0x05\n      dup2\n      gt\n      iszero\n      tag_24\n      jumpi\n      invalid\n    tag_24:\n        /* \"contracts/paylock.sol\":351:353  st */\n      0x01\n      0x00\n      swap1\n      sload\n      swap1\n      0x0100\n      exp\n      swap1\n      div\n      0xff\n      and\n        /* \"contracts/paylock.sol\":351:370  st == State.Working */\n      0x05\n      dup2\n      gt\n      iszero\n      tag_25\n      jumpi\n      invalid\n    tag_25:\n      eq\n        /* \"contracts/paylock.sol\":342:372  require( st == State.Working ) */\n      tag_26\n      jumpi\n      0x00\n      dup1\n      revert\n    tag_26:\n        /* \"contracts/paylock.sol\":388:403  State.Completed */\n      0x01\n        /* \"contracts/paylock.sol\":383:385  st */\n      dup1\n      0x00\n        /* \"contracts/paylock.sol\":383:403  st = State.Completed */\n      0x0100\n      exp\n      dup2\n      sload\n      dup2\n      0xff\n      mul\n      not\n      and\n      swap1\n      dup4\n      0x05\n      dup2\n      gt\n      iszero\n      tag_27\n      jumpi\n      invalid\n    tag_27:\n      mul\n      or\n      swap1\n      sstore\n      pop\n        /* \"contracts/paylock.sol\":421:423  10 */\n      0x0a\n        /* \"contracts/paylock.sol\":414:418  disc */\n      0x00\n        /* \"contracts/paylock.sol\":414:423  disc = 10 */\n      dup2\n      swap1\n      sstore\n      pop\n        /* \"contracts/paylock.sol\":306:431  function signal() public {\r... */\n      jump\t// out\n        /* \"contracts/paylock.sol\":847:974  function collect_2_N() external {\r... */\n    tag_13:\n        /* \"contracts/paylock.sol\":905:916  State.Delay */\n      0x03\n        /* \"contracts/paylock.sol\":899:916  st == State.Delay */\n      0x05\n      dup2\n      gt\n      iszero\n      tag_29\n      jumpi\n      invalid\n    tag_29:\n        /* \"contracts/paylock.sol\":899:901  st */\n      0x01\n      0x00\n      swap1\n      sload\n      swap1\n      0x0100\n      exp\n      swap1\n      div\n      0xff\n      and\n        /* \"contracts/paylock.sol\":899:916  st == State.Delay */\n      0x05\n      dup2\n      gt\n      iszero\n      tag_30\n      jumpi\n      invalid\n    tag_30:\n      eq\n        /* \"contracts/paylock.sol\":890:918  require( st == State.Delay ) */\n      tag_31\n      jumpi\n      0x00\n      dup1\n      revert\n    tag_31:\n        /* \"contracts/paylock.sol\":934:947  State.Forfeit */\n      0x05\n        /* \"contracts/paylock.sol\":929:931  st */\n      0x01\n      0x00\n        /* \"contracts/paylock.sol\":929:947  st = State.Forfeit */\n      0x0100\n      exp\n      dup2\n      sload\n      dup2\n      0xff\n      mul\n      not\n      and\n      swap1\n      dup4\n      0x05\n      dup2\n      gt\n      iszero\n      tag_32\n      jumpi\n      invalid\n    tag_32:\n      mul\n      or\n      swap1\n      sstore\n      pop\n        /* \"contracts/paylock.sol\":965:966  0 */\n      0x00\n        /* \"contracts/paylock.sol\":958:962  disc */\n      dup1\n        /* \"contracts/paylock.sol\":958:966  disc = 0 */\n      dup2\n      swap1\n      sstore\n      pop\n        /* \"contracts/paylock.sol\":847:974  function collect_2_N() external {\r... */\n      jump\t// out\n        /* \"contracts/paylock.sol\":576:705  function collect_1_N() external {\r... */\n    tag_15:\n        /* \"contracts/paylock.sol\":634:649  State.Completed */\n      0x01\n        /* \"contracts/paylock.sol\":628:649  st == State.Completed */\n      0x05\n      dup2\n      gt\n      iszero\n      tag_34\n      jumpi\n      invalid\n    tag_34:\n        /* \"contracts/paylock.sol\":628:630  st */\n      0x01\n      0x00\n      swap1\n      sload\n      swap1\n      0x0100\n      exp\n      swap1\n      div\n      0xff\n      and\n        /* \"contracts/paylock.sol\":628:649  st == State.Completed */\n      0x05\n      dup2\n      gt\n      iszero\n      tag_35\n      jumpi\n      invalid\n    tag_35:\n      eq\n        /* \"contracts/paylock.sol\":619:651  require( st == State.Completed ) */\n      tag_36\n      jumpi\n      0x00\n      dup1\n      revert\n    tag_36:\n        /* \"contracts/paylock.sol\":667:678  State.Delay */\n      0x03\n        /* \"contracts/paylock.sol\":662:664  st */\n      0x01\n      0x00\n        /* \"contracts/paylock.sol\":662:678  st = State.Delay */\n      0x0100\n      exp\n      dup2\n      sload\n      dup2\n      0xff\n      mul\n      not\n      and\n      swap1\n      dup4\n      0x05\n      dup2\n      gt\n      iszero\n      tag_37\n      jumpi\n      invalid\n    tag_37:\n      mul\n      or\n      swap1\n      sstore\n      pop\n        /* \"contracts/paylock.sol\":696:697  5 */\n      0x05\n        /* \"contracts/paylock.sol\":689:693  disc */\n      0x00\n        /* \"contracts/paylock.sol\":689:697  disc = 5 */\n      dup2\n      swap1\n      sstore\n      pop\n        /* \"contracts/paylock.sol\":576:705  function collect_1_N() external {\r... */\n      jump\t// out\n        /* \"contracts/paylock.sol\":713:839  function collect_2_Y() external {\r... */\n    tag_17:\n        /* \"contracts/paylock.sol\":771:782  State.Delay */\n      0x03\n        /* \"contracts/paylock.sol\":765:782  st == State.Delay */\n      0x05\n      dup2\n      gt\n      iszero\n      tag_39\n      jumpi\n      invalid\n    tag_39:\n        /* \"contracts/paylock.sol\":765:767  st */\n      0x01\n      0x00\n      swap1\n      sload\n      swap1\n      0x0100\n      exp\n      swap1\n      div\n      0xff\n      and\n        /* \"contracts/paylock.sol\":765:782  st == State.Delay */\n      0x05\n      dup2\n      gt\n      iszero\n      tag_40\n      jumpi\n      invalid\n    tag_40:\n      eq\n        /* \"contracts/paylock.sol\":756:784  require( st == State.Delay ) */\n      tag_41\n      jumpi\n      0x00\n      dup1\n      revert\n    tag_41:\n        /* \"contracts/paylock.sol\":800:812  State.Done_2 */\n      0x04\n        /* \"contracts/paylock.sol\":795:797  st */\n      0x01\n      0x00\n        /* \"contracts/paylock.sol\":795:812  st = State.Done_2 */\n      0x0100\n      exp\n      dup2\n      sload\n      dup2\n      0xff\n      mul\n      not\n      and\n      swap1\n      dup4\n      0x05\n      dup2\n      gt\n      iszero\n      tag_42\n      jumpi\n      invalid\n    tag_42:\n      mul\n      or\n      swap1\n      sstore\n      pop\n        /* \"contracts/paylock.sol\":830:831  5 */\n      0x05\n        /* \"contracts/paylock.sol\":823:827  disc */\n      0x00\n        /* \"contracts/paylock.sol\":823:831  disc = 5 */\n      dup2\n      swap1\n      sstore\n      pop\n        /* \"contracts/paylock.sol\":713:839  function collect_2_Y() external {\r... */\n      jump\t// out\n\n    auxdata: 0xa2646970667358221220224251da5de1b87a57734cef735fe9011610af7b25b90db9f43b6831c9df0d1b64736f6c63430006000033\n}\n",
				"bytecode": {
					"linkReferences": {},
					"object": "608060405234801561001057600080fd5b506000600160006101000a81548160ff0219169083600581111561003057fe5b0217905550600080819055506102a28061004b6000396000f3fe608060405234801561001057600080fd5b50600436106100575760003560e01c80634c3bc76e1461005c578063640d090b1461006657806394f5c52d14610070578063953884de1461007a578063e3ed516614610084575b600080fd5b61006461008e565b005b61006e6100ee565b005b61007861014d565b005b6100826101ac565b005b61008c61020c565b005b6001600581111561009b57fe5b600160009054906101000a900460ff1660058111156100b657fe5b146100c057600080fd5b6002600160006101000a81548160ff021916908360058111156100df57fe5b0217905550600a600081905550565b600060058111156100fb57fe5b600160009054906101000a900460ff16600581111561011657fe5b1461012057600080fd5b60018060006101000a81548160ff0219169083600581111561013e57fe5b0217905550600a600081905550565b6003600581111561015a57fe5b600160009054906101000a900460ff16600581111561017557fe5b1461017f57600080fd5b6005600160006101000a81548160ff0219169083600581111561019e57fe5b021790555060008081905550565b600160058111156101b957fe5b600160009054906101000a900460ff1660058111156101d457fe5b146101de57600080fd5b6003600160006101000a81548160ff021916908360058111156101fd57fe5b02179055506005600081905550565b6003600581111561021957fe5b600160009054906101000a900460ff16600581111561023457fe5b1461023e57600080fd5b6004600160006101000a81548160ff0219169083600581111561025d57fe5b0217905550600560008190555056fea2646970667358221220224251da5de1b87a57734cef735fe9011610af7b25b90db9f43b6831c9df0d1b64736f6c63430006000033",
					"opcodes": "PUSH1 0x80 PUSH1 0x40 MSTORE CALLVALUE DUP1 ISZERO PUSH2 0x10 JUMPI PUSH1 0x0 DUP1 REVERT JUMPDEST POP PUSH1 0x0 PUSH1 0x1 PUSH1 0x0 PUSH2 0x100 EXP DUP2 SLOAD DUP2 PUSH1 0xFF MUL NOT AND SWAP1 DUP4 PUSH1 0x5 DUP2 GT ISZERO PUSH2 0x30 JUMPI INVALID JUMPDEST MUL OR SWAP1 SSTORE POP PUSH1 0x0 DUP1 DUP2 SWAP1 SSTORE POP PUSH2 0x2A2 DUP1 PUSH2 0x4B PUSH1 0x0 CODECOPY PUSH1 0x0 RETURN INVALID PUSH1 0x80 PUSH1 0x40 MSTORE CALLVALUE DUP1 ISZERO PUSH2 0x10 JUMPI PUSH1 0x0 DUP1 REVERT JUMPDEST POP PUSH1 0x4 CALLDATASIZE LT PUSH2 0x57 JUMPI PUSH1 0x0 CALLDATALOAD PUSH1 0xE0 SHR DUP1 PUSH4 0x4C3BC76E EQ PUSH2 0x5C JUMPI DUP1 PUSH4 0x640D090B EQ PUSH2 0x66 JUMPI DUP1 PUSH4 0x94F5C52D EQ PUSH2 0x70 JUMPI DUP1 PUSH4 0x953884DE EQ PUSH2 0x7A JUMPI DUP1 PUSH4 0xE3ED5166 EQ PUSH2 0x84 JUMPI JUMPDEST PUSH1 0x0 DUP1 REVERT JUMPDEST PUSH2 0x64 PUSH2 0x8E JUMP JUMPDEST STOP JUMPDEST PUSH2 0x6E PUSH2 0xEE JUMP JUMPDEST STOP JUMPDEST PUSH2 0x78 PUSH2 0x14D JUMP JUMPDEST STOP JUMPDEST PUSH2 0x82 PUSH2 0x1AC JUMP JUMPDEST STOP JUMPDEST PUSH2 0x8C PUSH2 0x20C JUMP JUMPDEST STOP JUMPDEST PUSH1 0x1 PUSH1 0x5 DUP2 GT ISZERO PUSH2 0x9B JUMPI INVALID JUMPDEST PUSH1 0x1 PUSH1 0x0 SWAP1 SLOAD SWAP1 PUSH2 0x100 EXP SWAP1 DIV PUSH1 0xFF AND PUSH1 0x5 DUP2 GT ISZERO PUSH2 0xB6 JUMPI INVALID JUMPDEST EQ PUSH2 0xC0 JUMPI PUSH1 0x0 DUP1 REVERT JUMPDEST PUSH1 0x2 PUSH1 0x1 PUSH1 0x0 PUSH2 0x100 EXP DUP2 SLOAD DUP2 PUSH1 0xFF MUL NOT AND SWAP1 DUP4 PUSH1 0x5 DUP2 GT ISZERO PUSH2 0xDF JUMPI INVALID JUMPDEST MUL OR SWAP1 SSTORE POP PUSH1 0xA PUSH1 0x0 DUP2 SWAP1 SSTORE POP JUMP JUMPDEST PUSH1 0x0 PUSH1 0x5 DUP2 GT ISZERO PUSH2 0xFB JUMPI INVALID JUMPDEST PUSH1 0x1 PUSH1 0x0 SWAP1 SLOAD SWAP1 PUSH2 0x100 EXP SWAP1 DIV PUSH1 0xFF AND PUSH1 0x5 DUP2 GT ISZERO PUSH2 0x116 JUMPI INVALID JUMPDEST EQ PUSH2 0x120 JUMPI PUSH1 0x0 DUP1 REVERT JUMPDEST PUSH1 0x1 DUP1 PUSH1 0x0 PUSH2 0x100 EXP DUP2 SLOAD DUP2 PUSH1 0xFF MUL NOT AND SWAP1 DUP4 PUSH1 0x5 DUP2 GT ISZERO PUSH2 0x13E JUMPI INVALID JUMPDEST MUL OR SWAP1 SSTORE POP PUSH1 0xA PUSH1 0x0 DUP2 SWAP1 SSTORE POP JUMP JUMPDEST PUSH1 0x3 PUSH1 0x5 DUP2 GT ISZERO PUSH2 0x15A JUMPI INVALID JUMPDEST PUSH1 0x1 PUSH1 0x0 SWAP1 SLOAD SWAP1 PUSH2 0x100 EXP SWAP1 DIV PUSH1 0xFF AND PUSH1 0x5 DUP2 GT ISZERO PUSH2 0x175 JUMPI INVALID JUMPDEST EQ PUSH2 0x17F JUMPI PUSH1 0x0 DUP1 REVERT JUMPDEST PUSH1 0x5 PUSH1 0x1 PUSH1 0x0 PUSH2 0x100 EXP DUP2 SLOAD DUP2 PUSH1 0xFF MUL NOT AND SWAP1 DUP4 PUSH1 0x5 DUP2 GT ISZERO PUSH2 0x19E JUMPI INVALID JUMPDEST MUL OR SWAP1 SSTORE POP PUSH1 0x0 DUP1 DUP2 SWAP1 SSTORE POP JUMP JUMPDEST PUSH1 0x1 PUSH1 0x5 DUP2 GT ISZERO PUSH2 0x1B9 JUMPI INVALID JUMPDEST PUSH1 0x1 PUSH1 0x0 SWAP1 SLOAD SWAP1 PUSH2 0x100 EXP SWAP1 DIV PUSH1 0xFF AND PUSH1 0x5 DUP2 GT ISZERO PUSH2 0x1D4 JUMPI INVALID JUMPDEST EQ PUSH2 0x1DE JUMPI PUSH1 0x0 DUP1 REVERT JUMPDEST PUSH1 0x3 PUSH1 0x1 PUSH1 0x0 PUSH2 0x100 EXP DUP2 SLOAD DUP2 PUSH1 0xFF MUL NOT AND SWAP1 DUP4 PUSH1 0x5 DUP2 GT ISZERO PUSH2 0x1FD JUMPI INVALID JUMPDEST MUL OR SWAP1 SSTORE POP PUSH1 0x5 PUSH1 0x0 DUP2 SWAP1 SSTORE POP JUMP JUMPDEST PUSH1 0x3 PUSH1 0x5 DUP2 GT ISZERO PUSH2 0x219 JUMPI INVALID JUMPDEST PUSH1 0x1 PUSH1 0x0 SWAP1 SLOAD SWAP1 PUSH2 0x100 EXP SWAP1 DIV PUSH1 0xFF AND PUSH1 0x5 DUP2 GT ISZERO PUSH2 0x234 JUMPI INVALID JUMPDEST EQ PUSH2 0x23E JUMPI PUSH1 0x0 DUP1 REVERT JUMPDEST PUSH1 0x4 PUSH1 0x1 PUSH1 0x0 PUSH2 0x100 EXP DUP2 SLOAD DUP2 PUSH1 0xFF MUL NOT AND SWAP1 DUP4 PUSH1 0x5 DUP2 GT ISZERO PUSH2 0x25D JUMPI INVALID JUMPDEST MUL OR SWAP1 SSTORE POP PUSH1 0x5 PUSH1 0x0 DUP2 SWAP1 SSTORE POP JUMP INVALID LOG2 PUSH5 0x6970667358 0x22 SLT KECCAK256 0x22 TIMESTAMP MLOAD 0xDA 0x5D 0xE1 0xB8 PUSH27 0x57734CEF735FE9011610AF7B25B90DB9F43B6831C9DF0D1B64736F PUSH13 0x63430006000033000000000000 "
				},
				"gasEstimates": {
					"creation": {
						"codeDepositCost": "134800",
						"executionCost": "26084",
						"totalCost": "160884"
					},
					"external": {
						"collect_1_N()": "42000",
						"collect_1_Y()": "41934",
						"collect_2_N()": "26978",
						"collect_2_Y()": "42022",
						"signal()": "41956"
					}
				},
				"methodIdentifiers": {
					"collect_1_N()": "953884de",
					"collect_1_Y()": "4c3bc76e",
					"collect_2_N()": "94f5c52d",
					"collect_2_Y()": "e3ed5166",
					"signal()": "640d090b"
				}
			},
			"storageLayout": {
				"storage": [
					{
						"astId": 10,
						"contract": "contracts/paylock.sol:Paylock",
						"label": "disc",
						"offset": 0,
						"slot": "0",
						"type": "t_int256"
					},
					{
						"astId": 12,
						"contract": "contracts/paylock.sol:Paylock",
						"label": "st",
						"offset": 0,
						"slot": "1",
						"type": "t_enum(State)8"
					}
				],
				"types": {
					"t_enum(State)8": {
						"encoding": "inplace",
						"label": "enum Paylock.State",
						"numberOfBytes": "1"
					},
					"t_int256": {
						"encoding": "inplace",
						"label": "int256",
						"numberOfBytes": "32"
					}
				}
			},
			"userdoc": {
				"methods": {}
			}
		}
	}
}