{
	"contracts/supplier.sol": {
		"Rental": {
			"abi": [
				{
					"inputs": [],
					"stateMutability": "nonpayable",
					"type": "constructor"
				},
				{
					"inputs": [],
					"name": "rent_out_resource",
					"outputs": [],
					"stateMutability": "nonpayable",
					"type": "function"
				},
				{
					"inputs": [],
					"name": "retrieve_resource",
					"outputs": [],
					"stateMutability": "nonpayable",
					"type": "function"
				}
			],
			"devdoc": {
				"methods": {}
			},
			"evm": {
				"assembly": "    /* \"contracts/supplier.sol\":466:1047  contract Rental {\r... */\n  mstore(0x40, 0x80)\n    /* \"contracts/supplier.sol\":560:625  constructor() public {\r... */\n  callvalue\n    /* \"--CODEGEN--\":8:17   */\n  dup1\n    /* \"--CODEGEN--\":5:7   */\n  iszero\n  tag_1\n  jumpi\n    /* \"--CODEGEN--\":30:31   */\n  0x00\n    /* \"--CODEGEN--\":27:28   */\n  dup1\n    /* \"--CODEGEN--\":20:32   */\n  revert\n    /* \"--CODEGEN--\":5:7   */\ntag_1:\n    /* \"contracts/supplier.sol\":560:625  constructor() public {\r... */\n  pop\n    /* \"contracts/supplier.sol\":613:617  true */\n  0x01\n    /* \"contracts/supplier.sol\":592:610  resource_available */\n  0x00\n  0x14\n    /* \"contracts/supplier.sol\":592:617  resource_available = true */\n  0x0100\n  exp\n  dup2\n  sload\n  dup2\n  0xff\n  mul\n  not\n  and\n  swap1\n  dup4\n  iszero\n  iszero\n  mul\n  or\n  swap1\n  sstore\n  pop\n    /* \"contracts/supplier.sol\":466:1047  contract Rental {\r... */\n  dataSize(sub_0)\n  dup1\n  dataOffset(sub_0)\n  0x00\n  codecopy\n  0x00\n  return\nstop\n\nsub_0: assembly {\n        /* \"contracts/supplier.sol\":466:1047  contract Rental {\r... */\n      mstore(0x40, 0x80)\n      callvalue\n        /* \"--CODEGEN--\":8:17   */\n      dup1\n        /* \"--CODEGEN--\":5:7   */\n      iszero\n      tag_1\n      jumpi\n        /* \"--CODEGEN--\":30:31   */\n      0x00\n        /* \"--CODEGEN--\":27:28   */\n      dup1\n        /* \"--CODEGEN--\":20:32   */\n      revert\n        /* \"--CODEGEN--\":5:7   */\n    tag_1:\n        /* \"contracts/supplier.sol\":466:1047  contract Rental {\r... */\n      pop\n      jumpi(tag_2, lt(calldatasize, 0x04))\n      shr(0xe0, calldataload(0x00))\n      dup1\n      0x3695dd4b\n      eq\n      tag_3\n      jumpi\n      dup1\n      0xbb150fbf\n      eq\n      tag_4\n      jumpi\n    tag_2:\n      0x00\n      dup1\n      revert\n        /* \"contracts/supplier.sol\":846:1038  function retrieve_resource() external {\r... */\n    tag_3:\n      tag_5\n      tag_6\n      jump\t// in\n    tag_5:\n      stop\n        /* \"contracts/supplier.sol\":637:838  function rent_out_resource() external {\r... */\n    tag_4:\n      tag_7\n      tag_8\n      jump\t// in\n    tag_7:\n      stop\n        /* \"contracts/supplier.sol\":846:1038  function retrieve_resource() external {\r... */\n    tag_6:\n        /* \"contracts/supplier.sol\":925:930  false */\n      0x00\n        /* \"contracts/supplier.sol\":903:930  resource_available == false */\n      iszero\n      iszero\n        /* \"contracts/supplier.sol\":903:921  resource_available */\n      0x00\n      0x14\n      swap1\n      sload\n      swap1\n      0x0100\n      exp\n      swap1\n      div\n      0xff\n      and\n        /* \"contracts/supplier.sol\":903:930  resource_available == false */\n      iszero\n      iszero\n      eq\n        /* \"contracts/supplier.sol\":903:962  resource_available == false && msg.sender == resource_owner */\n      dup1\n      iszero\n      tag_10\n      jumpi\n      pop\n        /* \"contracts/supplier.sol\":948:962  resource_owner */\n      0x00\n      dup1\n      swap1\n      sload\n      swap1\n      0x0100\n      exp\n      swap1\n      div\n      0xffffffffffffffffffffffffffffffffffffffff\n      and\n        /* \"contracts/supplier.sol\":934:962  msg.sender == resource_owner */\n      0xffffffffffffffffffffffffffffffffffffffff\n      and\n        /* \"contracts/supplier.sol\":934:944  msg.sender */\n      caller\n        /* \"contracts/supplier.sol\":934:962  msg.sender == resource_owner */\n      0xffffffffffffffffffffffffffffffffffffffff\n      and\n      eq\n        /* \"contracts/supplier.sol\":903:962  resource_available == false && msg.sender == resource_owner */\n    tag_10:\n        /* \"contracts/supplier.sol\":895:963  require(resource_available == false && msg.sender == resource_owner) */\n      tag_11\n      jumpi\n      0x00\n      dup1\n      revert\n    tag_11:\n        /* \"contracts/supplier.sol\":1026:1030  true */\n      0x01\n        /* \"contracts/supplier.sol\":1005:1023  resource_available */\n      0x00\n      0x14\n        /* \"contracts/supplier.sol\":1005:1030  resource_available = true */\n      0x0100\n      exp\n      dup2\n      sload\n      dup2\n      0xff\n      mul\n      not\n      and\n      swap1\n      dup4\n      iszero\n      iszero\n      mul\n      or\n      swap1\n      sstore\n      pop\n        /* \"contracts/supplier.sol\":846:1038  function retrieve_resource() external {\r... */\n      jump\t// out\n        /* \"contracts/supplier.sol\":637:838  function rent_out_resource() external {\r... */\n    tag_8:\n        /* \"contracts/supplier.sol\":716:720  true */\n      0x01\n        /* \"contracts/supplier.sol\":694:720  resource_available == true */\n      iszero\n      iszero\n        /* \"contracts/supplier.sol\":694:712  resource_available */\n      0x00\n      0x14\n      swap1\n      sload\n      swap1\n      0x0100\n      exp\n      swap1\n      div\n      0xff\n      and\n        /* \"contracts/supplier.sol\":694:720  resource_available == true */\n      iszero\n      iszero\n      eq\n        /* \"contracts/supplier.sol\":686:721  require(resource_available == true) */\n      tag_13\n      jumpi\n      0x00\n      dup1\n      revert\n    tag_13:\n        /* \"contracts/supplier.sol\":783:793  msg.sender */\n      caller\n        /* \"contracts/supplier.sol\":766:780  resource_owner */\n      0x00\n      dup1\n        /* \"contracts/supplier.sol\":766:793  resource_owner = msg.sender */\n      0x0100\n      exp\n      dup2\n      sload\n      dup2\n      0xffffffffffffffffffffffffffffffffffffffff\n      mul\n      not\n      and\n      swap1\n      dup4\n      0xffffffffffffffffffffffffffffffffffffffff\n      and\n      mul\n      or\n      swap1\n      sstore\n      pop\n        /* \"contracts/supplier.sol\":825:830  false */\n      0x00\n        /* \"contracts/supplier.sol\":804:822  resource_available */\n      dup1\n      0x14\n        /* \"contracts/supplier.sol\":804:830  resource_available = false */\n      0x0100\n      exp\n      dup2\n      sload\n      dup2\n      0xff\n      mul\n      not\n      and\n      swap1\n      dup4\n      iszero\n      iszero\n      mul\n      or\n      swap1\n      sstore\n      pop\n        /* \"contracts/supplier.sol\":637:838  function rent_out_resource() external {\r... */\n      jump\t// out\n\n    auxdata: 0xa2646970667358221220eefb267027de8973b31c68786985e47e687c67a2661e52e5fe33820fbbb55f9264736f6c63430006000033\n}\n",
				"bytecode": {
					"linkReferences": {},
					"object": "608060405234801561001057600080fd5b506001600060146101000a81548160ff0219169083151502179055506101968061003b6000396000f3fe608060405234801561001057600080fd5b50600436106100365760003560e01c80633695dd4b1461003b578063bb150fbf14610045575b600080fd5b61004361004f565b005b61004d6100e4565b005b60001515600060149054906101000a900460ff1615151480156100be57506000809054906101000a900473ffffffffffffffffffffffffffffffffffffffff1673ffffffffffffffffffffffffffffffffffffffff163373ffffffffffffffffffffffffffffffffffffffff16145b6100c757600080fd5b6001600060146101000a81548160ff021916908315150217905550565b60011515600060149054906101000a900460ff1615151461010457600080fd5b336000806101000a81548173ffffffffffffffffffffffffffffffffffffffff021916908373ffffffffffffffffffffffffffffffffffffffff16021790555060008060146101000a81548160ff02191690831515021790555056fea2646970667358221220eefb267027de8973b31c68786985e47e687c67a2661e52e5fe33820fbbb55f9264736f6c63430006000033",
					"opcodes": "PUSH1 0x80 PUSH1 0x40 MSTORE CALLVALUE DUP1 ISZERO PUSH2 0x10 JUMPI PUSH1 0x0 DUP1 REVERT JUMPDEST POP PUSH1 0x1 PUSH1 0x0 PUSH1 0x14 PUSH2 0x100 EXP DUP2 SLOAD DUP2 PUSH1 0xFF MUL NOT AND SWAP1 DUP4 ISZERO ISZERO MUL OR SWAP1 SSTORE POP PUSH2 0x196 DUP1 PUSH2 0x3B PUSH1 0x0 CODECOPY PUSH1 0x0 RETURN INVALID PUSH1 0x80 PUSH1 0x40 MSTORE CALLVALUE DUP1 ISZERO PUSH2 0x10 JUMPI PUSH1 0x0 DUP1 REVERT JUMPDEST POP PUSH1 0x4 CALLDATASIZE LT PUSH2 0x36 JUMPI PUSH1 0x0 CALLDATALOAD PUSH1 0xE0 SHR DUP1 PUSH4 0x3695DD4B EQ PUSH2 0x3B JUMPI DUP1 PUSH4 0xBB150FBF EQ PUSH2 0x45 JUMPI JUMPDEST PUSH1 0x0 DUP1 REVERT JUMPDEST PUSH2 0x43 PUSH2 0x4F JUMP JUMPDEST STOP JUMPDEST PUSH2 0x4D PUSH2 0xE4 JUMP JUMPDEST STOP JUMPDEST PUSH1 0x0 ISZERO ISZERO PUSH1 0x0 PUSH1 0x14 SWAP1 SLOAD SWAP1 PUSH2 0x100 EXP SWAP1 DIV PUSH1 0xFF AND ISZERO ISZERO EQ DUP1 ISZERO PUSH2 0xBE JUMPI POP PUSH1 0x0 DUP1 SWAP1 SLOAD SWAP1 PUSH2 0x100 EXP SWAP1 DIV PUSH20 0xFFFFFFFFFFFFFFFFFFFFFFFFFFFFFFFFFFFFFFFF AND PUSH20 0xFFFFFFFFFFFFFFFFFFFFFFFFFFFFFFFFFFFFFFFF AND CALLER PUSH20 0xFFFFFFFFFFFFFFFFFFFFFFFFFFFFFFFFFFFFFFFF AND EQ JUMPDEST PUSH2 0xC7 JUMPI PUSH1 0x0 DUP1 REVERT JUMPDEST PUSH1 0x1 PUSH1 0x0 PUSH1 0x14 PUSH2 0x100 EXP DUP2 SLOAD DUP2 PUSH1 0xFF MUL NOT AND SWAP1 DUP4 ISZERO ISZERO MUL OR SWAP1 SSTORE POP JUMP JUMPDEST PUSH1 0x1 ISZERO ISZERO PUSH1 0x0 PUSH1 0x14 SWAP1 SLOAD SWAP1 PUSH2 0x100 EXP SWAP1 DIV PUSH1 0xFF AND ISZERO ISZERO EQ PUSH2 0x104 JUMPI PUSH1 0x0 DUP1 REVERT JUMPDEST CALLER PUSH1 0x0 DUP1 PUSH2 0x100 EXP DUP2 SLOAD DUP2 PUSH20 0xFFFFFFFFFFFFFFFFFFFFFFFFFFFFFFFFFFFFFFFF MUL NOT AND SWAP1 DUP4 PUSH20 0xFFFFFFFFFFFFFFFFFFFFFFFFFFFFFFFFFFFFFFFF AND MUL OR SWAP1 SSTORE POP PUSH1 0x0 DUP1 PUSH1 0x14 PUSH2 0x100 EXP DUP2 SLOAD DUP2 PUSH1 0xFF MUL NOT AND SWAP1 DUP4 ISZERO ISZERO MUL OR SWAP1 SSTORE POP JUMP INVALID LOG2 PUSH5 0x6970667358 0x22 SLT KECCAK256 0xEE 0xFB 0x26 PUSH17 0x27DE8973B31C68786985E47E687C67A266 0x1E MSTORE 0xE5 INVALID CALLER DUP3 0xF 0xBB 0xB5 0x5F SWAP3 PUSH5 0x736F6C6343 STOP MOD STOP STOP CALLER "
				},
				"gasEstimates": {
					"creation": {
						"codeDepositCost": "81200",
						"executionCost": "21046",
						"totalCost": "102246"
					},
					"external": {
						"rent_out_resource()": "42848",
						"retrieve_resource()": "22838"
					}
				},
				"methodIdentifiers": {
					"rent_out_resource()": "bb150fbf",
					"retrieve_resource()": "3695dd4b"
				}
			},
			"storageLayout": {
				"storage": [
					{
						"astId": 177,
						"contract": "contracts/supplier.sol:Rental",
						"label": "resource_owner",
						"offset": 0,
						"slot": "0",
						"type": "t_address"
					},
					{
						"astId": 179,
						"contract": "contracts/supplier.sol:Rental",
						"label": "resource_available",
						"offset": 20,
						"slot": "0",
						"type": "t_bool"
					}
				],
				"types": {
					"t_address": {
						"encoding": "inplace",
						"label": "address",
						"numberOfBytes": "20"
					},
					"t_bool": {
						"encoding": "inplace",
						"label": "bool",
						"numberOfBytes": "1"
					}
				}
			},
			"userdoc": {
				"methods": {}
			}
		}
	}
}