{
	"contracts/test.sol": {
		"ZeroCouponBond": {
			"abi": [
				{
					"inputs": [],
					"stateMutability": "nonpayable",
					"type": "constructor"
				},
				{
					"inputs": [
						{
							"internalType": "address",
							"name": "",
							"type": "address"
						}
					],
					"name": "balances",
					"outputs": [
						{
							"internalType": "uint256",
							"name": "",
							"type": "uint256"
						}
					],
					"stateMutability": "view",
					"type": "function"
				},
				{
					"inputs": [],
					"name": "discountRate",
					"outputs": [
						{
							"internalType": "uint256",
							"name": "",
							"type": "uint256"
						}
					],
					"stateMutability": "view",
					"type": "function"
				},
				{
					"inputs": [],
					"name": "faceValue",
					"outputs": [
						{
							"internalType": "uint256",
							"name": "",
							"type": "uint256"
						}
					],
					"stateMutability": "view",
					"type": "function"
				},
				{
					"inputs": [
						{
							"internalType": "address",
							"name": "buyer",
							"type": "address"
						}
					],
					"name": "issue",
					"outputs": [],
					"stateMutability": "payable",
					"type": "function"
				},
				{
					"inputs": [],
					"name": "issueBlock",
					"outputs": [
						{
							"internalType": "uint256",
							"name": "",
							"type": "uint256"
						}
					],
					"stateMutability": "view",
					"type": "function"
				},
				{
					"inputs": [],
					"name": "issuePrice",
					"outputs": [
						{
							"internalType": "uint256",
							"name": "",
							"type": "uint256"
						}
					],
					"stateMutability": "view",
					"type": "function"
				},
				{
					"inputs": [],
					"name": "issuser",
					"outputs": [
						{
							"internalType": "address",
							"name": "",
							"type": "address"
						}
					],
					"stateMutability": "view",
					"type": "function"
				},
				{
					"inputs": [],
					"name": "maturity",
					"outputs": [
						{
							"internalType": "uint256",
							"name": "",
							"type": "uint256"
						}
					],
					"stateMutability": "view",
					"type": "function"
				},
				{
					"inputs": [],
					"name": "redeem",
					"outputs": [],
					"stateMutability": "nonpayable",
					"type": "function"
				}
			],
			"devdoc": {
				"kind": "dev",
				"methods": {},
				"version": 1
			},
			"evm": {
				"assembly": "    /* \"contracts/test.sol\":60:1093  contract ZeroCouponBond {\r... */\n  mstore(0x40, 0x80)\n    /* \"contracts/test.sol\":330:535  constructor() {\r... */\n  callvalue\n  dup1\n  iszero\n  tag_1\n  jumpi\n  0x00\n  dup1\n  revert\ntag_1:\n  pop\n    /* \"contracts/test.sol\":365:375  msg.sender */\n  caller\n    /* \"contracts/test.sol\":355:362  issuser */\n  0x00\n  dup1\n    /* \"contracts/test.sol\":355:375  issuser = msg.sender */\n  0x0100\n  exp\n  dup2\n  sload\n  dup2\n  0xffffffffffffffffffffffffffffffffffffffff\n  mul\n  not\n  and\n  swap1\n  dup4\n  0xffffffffffffffffffffffffffffffffffffffff\n  and\n  mul\n  or\n  swap1\n  sstore\n  pop\n    /* \"contracts/test.sol\":398:407  0.1 ether */\n  0x016345785d8a0000\n    /* \"contracts/test.sol\":386:395  faceValue */\n  0x01\n    /* \"contracts/test.sol\":386:407  faceValue = 0.1 ether */\n  dup2\n  swap1\n  sstore\n  pop\n    /* \"contracts/test.sol\":433:435  20 */\n  0x14\n    /* \"contracts/test.sol\":418:430  discountRate */\n  0x02\n    /* \"contracts/test.sol\":418:435  discountRate = 20 */\n  dup2\n  swap1\n  sstore\n  pop\n    /* \"contracts/test.sol\":458:463  10099 */\n  0x2773\n    /* \"contracts/test.sol\":447:455  maturity */\n  0x03\n    /* \"contracts/test.sol\":447:463  maturity = 10099 */\n  dup2\n  swap1\n  sstore\n  pop\n    /* \"contracts/test.sol\":523:526  109 */\n  0x6d\n    /* \"contracts/test.sol\":507:519  discountRate */\n  sload(0x02)\n    /* \"contracts/test.sol\":501:504  100 */\n  0x64\n    /* \"contracts/test.sol\":501:519  100 - discountRate */\n  tag_4\n  swap2\n  swap1\n  tag_5\n  jump\t// in\ntag_4:\n    /* \"contracts/test.sol\":488:497  faceValue */\n  sload(0x01)\n    /* \"contracts/test.sol\":488:520  faceValue *( 100 - discountRate) */\n  tag_6\n  swap2\n  swap1\n  tag_7\n  jump\t// in\ntag_6:\n    /* \"contracts/test.sol\":488:526  faceValue *( 100 - discountRate) / 109 */\n  tag_8\n  swap2\n  swap1\n  tag_9\n  jump\t// in\ntag_8:\n    /* \"contracts/test.sol\":475:485  issuePrice */\n  0x04\n    /* \"contracts/test.sol\":475:526  issuePrice = faceValue *( 100 - discountRate) / 109 */\n  dup2\n  swap1\n  sstore\n  pop\n    /* \"contracts/test.sol\":60:1093  contract ZeroCouponBond {\r... */\n  jump(tag_10)\n    /* \"#utility.yul\":7:192   */\ntag_9:\n  0x00\n    /* \"#utility.yul\":64:84   */\n  tag_13\n    /* \"#utility.yul\":82:83   */\n  dup3\n    /* \"#utility.yul\":64:84   */\n  tag_14\n  jump\t// in\ntag_13:\n    /* \"#utility.yul\":59:84   */\n  swap2\n  pop\n    /* \"#utility.yul\":98:118   */\n  tag_15\n    /* \"#utility.yul\":116:117   */\n  dup4\n    /* \"#utility.yul\":98:118   */\n  tag_14\n  jump\t// in\ntag_15:\n    /* \"#utility.yul\":93:118   */\n  swap3\n  pop\n    /* \"#utility.yul\":137:138   */\n  dup3\n    /* \"#utility.yul\":127:129   */\n  tag_16\n  jumpi\n    /* \"#utility.yul\":142:160   */\n  tag_17\n  tag_18\n  jump\t// in\ntag_17:\n    /* \"#utility.yul\":127:129   */\ntag_16:\n    /* \"#utility.yul\":184:185   */\n  dup3\n    /* \"#utility.yul\":181:182   */\n  dup3\n    /* \"#utility.yul\":177:186   */\n  div\n    /* \"#utility.yul\":172:186   */\n  swap1\n  pop\n    /* \"#utility.yul\":49:192   */\n  swap3\n  swap2\n  pop\n  pop\n  jump\t// out\n    /* \"#utility.yul\":198:546   */\ntag_7:\n  0x00\n    /* \"#utility.yul\":261:281   */\n  tag_20\n    /* \"#utility.yul\":279:280   */\n  dup3\n    /* \"#utility.yul\":261:281   */\n  tag_14\n  jump\t// in\ntag_20:\n    /* \"#utility.yul\":256:281   */\n  swap2\n  pop\n    /* \"#utility.yul\":295:315   */\n  tag_21\n    /* \"#utility.yul\":313:314   */\n  dup4\n    /* \"#utility.yul\":295:315   */\n  tag_14\n  jump\t// in\ntag_21:\n    /* \"#utility.yul\":290:315   */\n  swap3\n  pop\n    /* \"#utility.yul\":483:484   */\n  dup2\n    /* \"#utility.yul\":415:481   */\n  0xffffffffffffffffffffffffffffffffffffffffffffffffffffffffffffffff\n    /* \"#utility.yul\":411:485   */\n  div\n    /* \"#utility.yul\":408:409   */\n  dup4\n    /* \"#utility.yul\":405:486   */\n  gt\n    /* \"#utility.yul\":400:401   */\n  dup3\n    /* \"#utility.yul\":393:402   */\n  iszero\n    /* \"#utility.yul\":386:403   */\n  iszero\n    /* \"#utility.yul\":382:487   */\n  and\n    /* \"#utility.yul\":379:381   */\n  iszero\n  tag_22\n  jumpi\n    /* \"#utility.yul\":490:508   */\n  tag_23\n  tag_24\n  jump\t// in\ntag_23:\n    /* \"#utility.yul\":379:381   */\ntag_22:\n    /* \"#utility.yul\":538:539   */\n  dup3\n    /* \"#utility.yul\":535:536   */\n  dup3\n    /* \"#utility.yul\":531:540   */\n  mul\n    /* \"#utility.yul\":520:540   */\n  swap1\n  pop\n    /* \"#utility.yul\":246:546   */\n  swap3\n  swap2\n  pop\n  pop\n  jump\t// out\n    /* \"#utility.yul\":552:743   */\ntag_5:\n  0x00\n    /* \"#utility.yul\":612:632   */\n  tag_26\n    /* \"#utility.yul\":630:631   */\n  dup3\n    /* \"#utility.yul\":612:632   */\n  tag_14\n  jump\t// in\ntag_26:\n    /* \"#utility.yul\":607:632   */\n  swap2\n  pop\n    /* \"#utility.yul\":646:666   */\n  tag_27\n    /* \"#utility.yul\":664:665   */\n  dup4\n    /* \"#utility.yul\":646:666   */\n  tag_14\n  jump\t// in\ntag_27:\n    /* \"#utility.yul\":641:666   */\n  swap3\n  pop\n    /* \"#utility.yul\":685:686   */\n  dup3\n    /* \"#utility.yul\":682:683   */\n  dup3\n    /* \"#utility.yul\":679:687   */\n  lt\n    /* \"#utility.yul\":676:678   */\n  iszero\n  tag_28\n  jumpi\n    /* \"#utility.yul\":690:708   */\n  tag_29\n  tag_24\n  jump\t// in\ntag_29:\n    /* \"#utility.yul\":676:678   */\ntag_28:\n    /* \"#utility.yul\":735:736   */\n  dup3\n    /* \"#utility.yul\":732:733   */\n  dup3\n    /* \"#utility.yul\":728:737   */\n  sub\n    /* \"#utility.yul\":720:737   */\n  swap1\n  pop\n    /* \"#utility.yul\":597:743   */\n  swap3\n  swap2\n  pop\n  pop\n  jump\t// out\n    /* \"#utility.yul\":749:826   */\ntag_14:\n  0x00\n    /* \"#utility.yul\":815:820   */\n  dup2\n    /* \"#utility.yul\":804:820   */\n  swap1\n  pop\n    /* \"#utility.yul\":794:826   */\n  swap2\n  swap1\n  pop\n  jump\t// out\n    /* \"#utility.yul\":832:1012   */\ntag_24:\n    /* \"#utility.yul\":880:957   */\n  0x4e487b7100000000000000000000000000000000000000000000000000000000\n    /* \"#utility.yul\":877:878   */\n  0x00\n    /* \"#utility.yul\":870:958   */\n  mstore\n    /* \"#utility.yul\":977:981   */\n  0x11\n    /* \"#utility.yul\":974:975   */\n  0x04\n    /* \"#utility.yul\":967:982   */\n  mstore\n    /* \"#utility.yul\":1001:1005   */\n  0x24\n    /* \"#utility.yul\":998:999   */\n  0x00\n    /* \"#utility.yul\":991:1006   */\n  revert\n    /* \"#utility.yul\":1018:1198   */\ntag_18:\n    /* \"#utility.yul\":1066:1143   */\n  0x4e487b7100000000000000000000000000000000000000000000000000000000\n    /* \"#utility.yul\":1063:1064   */\n  0x00\n    /* \"#utility.yul\":1056:1144   */\n  mstore\n    /* \"#utility.yul\":1163:1167   */\n  0x12\n    /* \"#utility.yul\":1160:1161   */\n  0x04\n    /* \"#utility.yul\":1153:1168   */\n  mstore\n    /* \"#utility.yul\":1187:1191   */\n  0x24\n    /* \"#utility.yul\":1184:1185   */\n  0x00\n    /* \"#utility.yul\":1177:1192   */\n  revert\n    /* \"contracts/test.sol\":60:1093  contract ZeroCouponBond {\r... */\ntag_10:\n  dataSize(sub_0)\n  dup1\n  dataOffset(sub_0)\n  0x00\n  codecopy\n  0x00\n  return\nstop\n\nsub_0: assembly {\n        /* \"contracts/test.sol\":60:1093  contract ZeroCouponBond {\r... */\n      mstore(0x40, 0x80)\n      jumpi(tag_1, lt(calldatasize, 0x04))\n      shr(0xe0, calldataload(0x00))\n      dup1\n      0x5c2c2005\n      gt\n      tag_11\n      jumpi\n      dup1\n      0x5c2c2005\n      eq\n      tag_6\n      jumpi\n      dup1\n      0x71e928af\n      eq\n      tag_7\n      jumpi\n      dup1\n      0xbe040fb0\n      eq\n      tag_8\n      jumpi\n      dup1\n      0xd91a5d88\n      eq\n      tag_9\n      jumpi\n      dup1\n      0xe6c0e6d5\n      eq\n      tag_10\n      jumpi\n      jump(tag_1)\n    tag_11:\n      dup1\n      0x0199ceaa\n      eq\n      tag_2\n      jumpi\n      dup1\n      0x204f83f9\n      eq\n      tag_3\n      jumpi\n      dup1\n      0x27e235e3\n      eq\n      tag_4\n      jumpi\n      dup1\n      0x44fd9caa\n      eq\n      tag_5\n      jumpi\n    tag_1:\n      0x00\n      dup1\n      revert\n        /* \"contracts/test.sol\":247:272  uint256 public issueBlock */\n    tag_2:\n      callvalue\n      dup1\n      iszero\n      tag_12\n      jumpi\n      0x00\n      dup1\n      revert\n    tag_12:\n      pop\n      tag_13\n      tag_14\n      jump\t// in\n    tag_13:\n      mload(0x40)\n      tag_15\n      swap2\n      swap1\n      tag_16\n      jump\t// in\n    tag_15:\n      mload(0x40)\n      dup1\n      swap2\n      sub\n      swap1\n      return\n        /* \"contracts/test.sol\":185:208  uint256 public maturity */\n    tag_3:\n      callvalue\n      dup1\n      iszero\n      tag_17\n      jumpi\n      0x00\n      dup1\n      revert\n    tag_17:\n      pop\n      tag_18\n      tag_19\n      jump\t// in\n    tag_18:\n      mload(0x40)\n      tag_20\n      swap2\n      swap1\n      tag_16\n      jump\t// in\n    tag_20:\n      mload(0x40)\n      dup1\n      swap2\n      sub\n      swap1\n      return\n        /* \"contracts/test.sol\":279:323  mapping(address => uint256 ) public balances */\n    tag_4:\n      callvalue\n      dup1\n      iszero\n      tag_21\n      jumpi\n      0x00\n      dup1\n      revert\n    tag_21:\n      pop\n      tag_22\n      0x04\n      dup1\n      calldatasize\n      sub\n      dup2\n      add\n      swap1\n      tag_23\n      swap2\n      swap1\n      tag_24\n      jump\t// in\n    tag_23:\n      tag_25\n      jump\t// in\n    tag_22:\n      mload(0x40)\n      tag_26\n      swap2\n      swap1\n      tag_16\n      jump\t// in\n    tag_26:\n      mload(0x40)\n      dup1\n      swap2\n      sub\n      swap1\n      return\n        /* \"contracts/test.sol\":120:144  uint256 public faceValue */\n    tag_5:\n      callvalue\n      dup1\n      iszero\n      tag_27\n      jumpi\n      0x00\n      dup1\n      revert\n    tag_27:\n      pop\n      tag_28\n      tag_29\n      jump\t// in\n    tag_28:\n      mload(0x40)\n      tag_30\n      swap2\n      swap1\n      tag_16\n      jump\t// in\n    tag_30:\n      mload(0x40)\n      dup1\n      swap2\n      sub\n      swap1\n      return\n        /* \"contracts/test.sol\":215:240  uint256 public issuePrice */\n    tag_6:\n      callvalue\n      dup1\n      iszero\n      tag_31\n      jumpi\n      0x00\n      dup1\n      revert\n    tag_31:\n      pop\n      tag_32\n      tag_33\n      jump\t// in\n    tag_32:\n      mload(0x40)\n      tag_34\n      swap2\n      swap1\n      tag_16\n      jump\t// in\n    tag_34:\n      mload(0x40)\n      dup1\n      swap2\n      sub\n      swap1\n      return\n        /* \"contracts/test.sol\":541:816  function issue(address buyer) public payable {\r... */\n    tag_7:\n      tag_35\n      0x04\n      dup1\n      calldatasize\n      sub\n      dup2\n      add\n      swap1\n      tag_36\n      swap2\n      swap1\n      tag_24\n      jump\t// in\n    tag_36:\n      tag_37\n      jump\t// in\n    tag_35:\n      stop\n        /* \"contracts/test.sol\":822:1090  function redeem() public {\r... */\n    tag_8:\n      callvalue\n      dup1\n      iszero\n      tag_38\n      jumpi\n      0x00\n      dup1\n      revert\n    tag_38:\n      pop\n      tag_39\n      tag_40\n      jump\t// in\n    tag_39:\n      stop\n        /* \"contracts/test.sol\":91:113  address public issuser */\n    tag_9:\n      callvalue\n      dup1\n      iszero\n      tag_41\n      jumpi\n      0x00\n      dup1\n      revert\n    tag_41:\n      pop\n      tag_42\n      tag_43\n      jump\t// in\n    tag_42:\n      mload(0x40)\n      tag_44\n      swap2\n      swap1\n      tag_45\n      jump\t// in\n    tag_44:\n      mload(0x40)\n      dup1\n      swap2\n      sub\n      swap1\n      return\n        /* \"contracts/test.sol\":151:178  uint256 public discountRate */\n    tag_10:\n      callvalue\n      dup1\n      iszero\n      tag_46\n      jumpi\n      0x00\n      dup1\n      revert\n    tag_46:\n      pop\n      tag_47\n      tag_48\n      jump\t// in\n    tag_47:\n      mload(0x40)\n      tag_49\n      swap2\n      swap1\n      tag_16\n      jump\t// in\n    tag_49:\n      mload(0x40)\n      dup1\n      swap2\n      sub\n      swap1\n      return\n        /* \"contracts/test.sol\":247:272  uint256 public issueBlock */\n    tag_14:\n      sload(0x05)\n      dup2\n      jump\t// out\n        /* \"contracts/test.sol\":185:208  uint256 public maturity */\n    tag_19:\n      sload(0x03)\n      dup2\n      jump\t// out\n        /* \"contracts/test.sol\":279:323  mapping(address => uint256 ) public balances */\n    tag_25:\n      mstore(0x20, 0x06)\n      dup1\n      0x00\n      mstore\n      keccak256(0x00, 0x40)\n      0x00\n      swap2\n      pop\n      swap1\n      pop\n      sload\n      dup2\n      jump\t// out\n        /* \"contracts/test.sol\":120:144  uint256 public faceValue */\n    tag_29:\n      sload(0x01)\n      dup2\n      jump\t// out\n        /* \"contracts/test.sol\":215:240  uint256 public issuePrice */\n    tag_33:\n      sload(0x04)\n      dup2\n      jump\t// out\n        /* \"contracts/test.sol\":541:816  function issue(address buyer) public payable {\r... */\n    tag_37:\n        /* \"contracts/test.sol\":618:628  issuePrice */\n      sload(0x04)\n        /* \"contracts/test.sol\":605:614  msg.value */\n      callvalue\n        /* \"contracts/test.sol\":605:628  msg.value == issuePrice */\n      eq\n        /* \"contracts/test.sol\":597:656  require(msg.value == issuePrice,\"lncorrect payment amount\") */\n      tag_51\n      jumpi\n      mload(0x40)\n      0x08c379a000000000000000000000000000000000000000000000000000000000\n      dup2\n      mstore\n      0x04\n      add\n      tag_52\n      swap1\n      tag_53\n      jump\t// in\n    tag_52:\n      mload(0x40)\n      dup1\n      swap2\n      sub\n      swap1\n      revert\n    tag_51:\n        /* \"contracts/test.sol\":694:695  0 */\n      0x00\n        /* \"contracts/test.sol\":676:684  balances */\n      0x06\n        /* \"contracts/test.sol\":676:691  balances[buyer] */\n      0x00\n        /* \"contracts/test.sol\":685:690  buyer */\n      dup4\n        /* \"contracts/test.sol\":676:691  balances[buyer] */\n      0xffffffffffffffffffffffffffffffffffffffff\n      and\n      0xffffffffffffffffffffffffffffffffffffffff\n      and\n      dup2\n      mstore\n      0x20\n      add\n      swap1\n      dup2\n      mstore\n      0x20\n      add\n      0x00\n      keccak256\n      sload\n        /* \"contracts/test.sol\":676:695  balances[buyer] ==0 */\n      eq\n        /* \"contracts/test.sol\":668:734  require(balances[buyer] ==0,\"Bond a ready issued tO this address\") */\n      tag_54\n      jumpi\n      mload(0x40)\n      0x08c379a000000000000000000000000000000000000000000000000000000000\n      dup2\n      mstore\n      0x04\n      add\n      tag_55\n      swap1\n      tag_56\n      jump\t// in\n    tag_55:\n      mload(0x40)\n      dup1\n      swap2\n      sub\n      swap1\n      revert\n    tag_54:\n        /* \"contracts/test.sol\":758:770  block.number */\n      number\n        /* \"contracts/test.sol\":745:755  issueBlock */\n      0x05\n        /* \"contracts/test.sol\":745:770  issueBlock = block.number */\n      dup2\n      swap1\n      sstore\n      pop\n        /* \"contracts/test.sol\":798:807  faceValue */\n      sload(0x01)\n        /* \"contracts/test.sol\":781:789  balances */\n      0x06\n        /* \"contracts/test.sol\":781:797  balances [buyer] */\n      0x00\n        /* \"contracts/test.sol\":791:796  buyer */\n      dup4\n        /* \"contracts/test.sol\":781:797  balances [buyer] */\n      0xffffffffffffffffffffffffffffffffffffffff\n      and\n      0xffffffffffffffffffffffffffffffffffffffff\n      and\n      dup2\n      mstore\n      0x20\n      add\n      swap1\n      dup2\n      mstore\n      0x20\n      add\n      0x00\n      keccak256\n        /* \"contracts/test.sol\":781:807  balances [buyer]=faceValue */\n      dup2\n      swap1\n      sstore\n      pop\n        /* \"contracts/test.sol\":541:816  function issue(address buyer) public payable {\r... */\n      pop\n      jump\t// out\n        /* \"contracts/test.sol\":822:1090  function redeem() public {\r... */\n    tag_40:\n        /* \"contracts/test.sol\":895:903  maturity */\n      sload(0x03)\n        /* \"contracts/test.sol\":882:892  issueBlock */\n      sload(0x05)\n        /* \"contracts/test.sol\":882:903  issueBlock + maturity */\n      tag_58\n      swap2\n      swap1\n      tag_59\n      jump\t// in\n    tag_58:\n        /* \"contracts/test.sol\":866:878  block.number */\n      number\n        /* \"contracts/test.sol\":866:903  block.number >= issueBlock + maturity */\n      lt\n      iszero\n        /* \"contracts/test.sol\":858:931  require(block.number >= issueBlock + maturity,\"Bond has not matured yet\") */\n      tag_60\n      jumpi\n      mload(0x40)\n      0x08c379a000000000000000000000000000000000000000000000000000000000\n      dup2\n      mstore\n      0x04\n      add\n      tag_61\n      swap1\n      tag_62\n      jump\t// in\n    tag_61:\n      mload(0x40)\n      dup1\n      swap2\n      sub\n      swap1\n      revert\n    tag_60:\n        /* \"contracts/test.sol\":972:973  0 */\n      0x00\n        /* \"contracts/test.sol\":950:958  balances */\n      0x06\n        /* \"contracts/test.sol\":950:970  balances[msg.sender] */\n      0x00\n        /* \"contracts/test.sol\":959:969  msg.sender */\n      caller\n        /* \"contracts/test.sol\":950:970  balances[msg.sender] */\n      0xffffffffffffffffffffffffffffffffffffffff\n      and\n      0xffffffffffffffffffffffffffffffffffffffff\n      and\n      dup2\n      mstore\n      0x20\n      add\n      swap1\n      dup2\n      mstore\n      0x20\n      add\n      0x00\n      keccak256\n      sload\n        /* \"contracts/test.sol\":950:973  balances[msg.sender] >0 */\n      gt\n        /* \"contracts/test.sol\":942:996  require(balances[msg.sender] >0, \"NO bond tO redeem\" ) */\n      tag_63\n      jumpi\n      mload(0x40)\n      0x08c379a000000000000000000000000000000000000000000000000000000000\n      dup2\n      mstore\n      0x04\n      add\n      tag_64\n      swap1\n      tag_65\n      jump\t// in\n    tag_64:\n      mload(0x40)\n      dup1\n      swap2\n      sub\n      swap1\n      revert\n    tag_63:\n        /* \"contracts/test.sol\":1015:1025  msg.sender */\n      caller\n        /* \"contracts/test.sol\":1007:1035  payable(msg.sender).transfer */\n      0xffffffffffffffffffffffffffffffffffffffff\n      and\n        /* \"contracts/test.sol\":1007:1046  payable(msg.sender).transfer(faceValue) */\n      0x08fc\n        /* \"contracts/test.sol\":1036:1045  faceValue */\n      sload(0x01)\n        /* \"contracts/test.sol\":1007:1046  payable(msg.sender).transfer(faceValue) */\n      swap1\n      dup2\n      iszero\n      mul\n      swap1\n      mload(0x40)\n      0x00\n      mload(0x40)\n      dup1\n      dup4\n      sub\n      dup2\n      dup6\n      dup9\n      dup9\n      call\n      swap4\n      pop\n      pop\n      pop\n      pop\n      iszero\n      dup1\n      iszero\n      tag_67\n      jumpi\n      returndatasize\n      0x00\n      dup1\n      returndatacopy\n      revert(0x00, returndatasize)\n    tag_67:\n      pop\n        /* \"contracts/test.sol\":1081:1082  0 */\n      0x00\n        /* \"contracts/test.sol\":1057:1065  balances */\n      0x06\n        /* \"contracts/test.sol\":1057:1078  balances [msg.sender] */\n      0x00\n        /* \"contracts/test.sol\":1067:1077  msg.sender */\n      caller\n        /* \"contracts/test.sol\":1057:1078  balances [msg.sender] */\n      0xffffffffffffffffffffffffffffffffffffffff\n      and\n      0xffffffffffffffffffffffffffffffffffffffff\n      and\n      dup2\n      mstore\n      0x20\n      add\n      swap1\n      dup2\n      mstore\n      0x20\n      add\n      0x00\n      keccak256\n        /* \"contracts/test.sol\":1057:1082  balances [msg.sender] = 0 */\n      dup2\n      swap1\n      sstore\n      pop\n        /* \"contracts/test.sol\":822:1090  function redeem() public {\r... */\n      jump\t// out\n        /* \"contracts/test.sol\":91:113  address public issuser */\n    tag_43:\n      0x00\n      dup1\n      sload\n      swap1\n      0x0100\n      exp\n      swap1\n      div\n      0xffffffffffffffffffffffffffffffffffffffff\n      and\n      dup2\n      jump\t// out\n        /* \"contracts/test.sol\":151:178  uint256 public discountRate */\n    tag_48:\n      sload(0x02)\n      dup2\n      jump\t// out\n        /* \"#utility.yul\":7:146   */\n    tag_69:\n      0x00\n        /* \"#utility.yul\":91:97   */\n      dup2\n        /* \"#utility.yul\":78:98   */\n      calldataload\n        /* \"#utility.yul\":69:98   */\n      swap1\n      pop\n        /* \"#utility.yul\":107:140   */\n      tag_71\n        /* \"#utility.yul\":134:139   */\n      dup2\n        /* \"#utility.yul\":107:140   */\n      tag_72\n      jump\t// in\n    tag_71:\n        /* \"#utility.yul\":59:146   */\n      swap3\n      swap2\n      pop\n      pop\n      jump\t// out\n        /* \"#utility.yul\":152:414   */\n    tag_24:\n      0x00\n        /* \"#utility.yul\":260:262   */\n      0x20\n        /* \"#utility.yul\":248:257   */\n      dup3\n        /* \"#utility.yul\":239:246   */\n      dup5\n        /* \"#utility.yul\":235:258   */\n      sub\n        /* \"#utility.yul\":231:263   */\n      slt\n        /* \"#utility.yul\":228:230   */\n      iszero\n      tag_74\n      jumpi\n        /* \"#utility.yul\":276:277   */\n      0x00\n        /* \"#utility.yul\":273:274   */\n      dup1\n        /* \"#utility.yul\":266:278   */\n      revert\n        /* \"#utility.yul\":228:230   */\n    tag_74:\n        /* \"#utility.yul\":319:320   */\n      0x00\n        /* \"#utility.yul\":344:397   */\n      tag_75\n        /* \"#utility.yul\":389:396   */\n      dup5\n        /* \"#utility.yul\":380:386   */\n      dup3\n        /* \"#utility.yul\":369:378   */\n      dup6\n        /* \"#utility.yul\":365:387   */\n      add\n        /* \"#utility.yul\":344:397   */\n      tag_69\n      jump\t// in\n    tag_75:\n        /* \"#utility.yul\":334:397   */\n      swap2\n      pop\n        /* \"#utility.yul\":290:407   */\n      pop\n        /* \"#utility.yul\":218:414   */\n      swap3\n      swap2\n      pop\n      pop\n      jump\t// out\n        /* \"#utility.yul\":420:538   */\n    tag_76:\n        /* \"#utility.yul\":507:531   */\n      tag_78\n        /* \"#utility.yul\":525:530   */\n      dup2\n        /* \"#utility.yul\":507:531   */\n      tag_79\n      jump\t// in\n    tag_78:\n        /* \"#utility.yul\":502:505   */\n      dup3\n        /* \"#utility.yul\":495:532   */\n      mstore\n        /* \"#utility.yul\":485:538   */\n      pop\n      pop\n      jump\t// out\n        /* \"#utility.yul\":544:911   */\n    tag_80:\n      0x00\n        /* \"#utility.yul\":707:774   */\n      tag_82\n        /* \"#utility.yul\":771:773   */\n      0x23\n        /* \"#utility.yul\":766:769   */\n      dup4\n        /* \"#utility.yul\":707:774   */\n      tag_83\n      jump\t// in\n    tag_82:\n        /* \"#utility.yul\":700:774   */\n      swap2\n      pop\n        /* \"#utility.yul\":804:838   */\n      0x426f6e6420612072656164792069737375656420744f20746869732061646472\n        /* \"#utility.yul\":800:801   */\n      0x00\n        /* \"#utility.yul\":795:798   */\n      dup4\n        /* \"#utility.yul\":791:802   */\n      add\n        /* \"#utility.yul\":784:839   */\n      mstore\n        /* \"#utility.yul\":870:875   */\n      0x6573730000000000000000000000000000000000000000000000000000000000\n        /* \"#utility.yul\":865:867   */\n      0x20\n        /* \"#utility.yul\":860:863   */\n      dup4\n        /* \"#utility.yul\":856:868   */\n      add\n        /* \"#utility.yul\":849:876   */\n      mstore\n        /* \"#utility.yul\":902:904   */\n      0x40\n        /* \"#utility.yul\":897:900   */\n      dup3\n        /* \"#utility.yul\":893:905   */\n      add\n        /* \"#utility.yul\":886:905   */\n      swap1\n      pop\n        /* \"#utility.yul\":690:911   */\n      swap2\n      swap1\n      pop\n      jump\t// out\n        /* \"#utility.yul\":917:1239   */\n    tag_84:\n      0x00\n        /* \"#utility.yul\":1080:1147   */\n      tag_86\n        /* \"#utility.yul\":1144:1146   */\n      0x18\n        /* \"#utility.yul\":1139:1142   */\n      dup4\n        /* \"#utility.yul\":1080:1147   */\n      tag_83\n      jump\t// in\n    tag_86:\n        /* \"#utility.yul\":1073:1147   */\n      swap2\n      pop\n        /* \"#utility.yul\":1177:1203   */\n      0x426f6e6420686173206e6f74206d617475726564207965740000000000000000\n        /* \"#utility.yul\":1173:1174   */\n      0x00\n        /* \"#utility.yul\":1168:1171   */\n      dup4\n        /* \"#utility.yul\":1164:1175   */\n      add\n        /* \"#utility.yul\":1157:1204   */\n      mstore\n        /* \"#utility.yul\":1230:1232   */\n      0x20\n        /* \"#utility.yul\":1225:1228   */\n      dup3\n        /* \"#utility.yul\":1221:1233   */\n      add\n        /* \"#utility.yul\":1214:1233   */\n      swap1\n      pop\n        /* \"#utility.yul\":1063:1239   */\n      swap2\n      swap1\n      pop\n      jump\t// out\n        /* \"#utility.yul\":1245:1560   */\n    tag_87:\n      0x00\n        /* \"#utility.yul\":1408:1475   */\n      tag_89\n        /* \"#utility.yul\":1472:1474   */\n      0x11\n        /* \"#utility.yul\":1467:1470   */\n      dup4\n        /* \"#utility.yul\":1408:1475   */\n      tag_83\n      jump\t// in\n    tag_89:\n        /* \"#utility.yul\":1401:1475   */\n      swap2\n      pop\n        /* \"#utility.yul\":1505:1524   */\n      0x4e4f20626f6e6420744f2072656465656d000000000000000000000000000000\n        /* \"#utility.yul\":1501:1502   */\n      0x00\n        /* \"#utility.yul\":1496:1499   */\n      dup4\n        /* \"#utility.yul\":1492:1503   */\n      add\n        /* \"#utility.yul\":1485:1525   */\n      mstore\n        /* \"#utility.yul\":1551:1553   */\n      0x20\n        /* \"#utility.yul\":1546:1549   */\n      dup3\n        /* \"#utility.yul\":1542:1554   */\n      add\n        /* \"#utility.yul\":1535:1554   */\n      swap1\n      pop\n        /* \"#utility.yul\":1391:1560   */\n      swap2\n      swap1\n      pop\n      jump\t// out\n        /* \"#utility.yul\":1566:1888   */\n    tag_90:\n      0x00\n        /* \"#utility.yul\":1729:1796   */\n      tag_92\n        /* \"#utility.yul\":1793:1795   */\n      0x18\n        /* \"#utility.yul\":1788:1791   */\n      dup4\n        /* \"#utility.yul\":1729:1796   */\n      tag_83\n      jump\t// in\n    tag_92:\n        /* \"#utility.yul\":1722:1796   */\n      swap2\n      pop\n        /* \"#utility.yul\":1826:1852   */\n      0x6c6e636f7272656374207061796d656e7420616d6f756e740000000000000000\n        /* \"#utility.yul\":1822:1823   */\n      0x00\n        /* \"#utility.yul\":1817:1820   */\n      dup4\n        /* \"#utility.yul\":1813:1824   */\n      add\n        /* \"#utility.yul\":1806:1853   */\n      mstore\n        /* \"#utility.yul\":1879:1881   */\n      0x20\n        /* \"#utility.yul\":1874:1877   */\n      dup3\n        /* \"#utility.yul\":1870:1882   */\n      add\n        /* \"#utility.yul\":1863:1882   */\n      swap1\n      pop\n        /* \"#utility.yul\":1712:1888   */\n      swap2\n      swap1\n      pop\n      jump\t// out\n        /* \"#utility.yul\":1894:2012   */\n    tag_93:\n        /* \"#utility.yul\":1981:2005   */\n      tag_95\n        /* \"#utility.yul\":1999:2004   */\n      dup2\n        /* \"#utility.yul\":1981:2005   */\n      tag_96\n      jump\t// in\n    tag_95:\n        /* \"#utility.yul\":1976:1979   */\n      dup3\n        /* \"#utility.yul\":1969:2006   */\n      mstore\n        /* \"#utility.yul\":1959:2012   */\n      pop\n      pop\n      jump\t// out\n        /* \"#utility.yul\":2018:2240   */\n    tag_45:\n      0x00\n        /* \"#utility.yul\":2149:2151   */\n      0x20\n        /* \"#utility.yul\":2138:2147   */\n      dup3\n        /* \"#utility.yul\":2134:2152   */\n      add\n        /* \"#utility.yul\":2126:2152   */\n      swap1\n      pop\n        /* \"#utility.yul\":2162:2233   */\n      tag_98\n        /* \"#utility.yul\":2230:2231   */\n      0x00\n        /* \"#utility.yul\":2219:2228   */\n      dup4\n        /* \"#utility.yul\":2215:2232   */\n      add\n        /* \"#utility.yul\":2206:2212   */\n      dup5\n        /* \"#utility.yul\":2162:2233   */\n      tag_76\n      jump\t// in\n    tag_98:\n        /* \"#utility.yul\":2116:2240   */\n      swap3\n      swap2\n      pop\n      pop\n      jump\t// out\n        /* \"#utility.yul\":2246:2665   */\n    tag_56:\n      0x00\n        /* \"#utility.yul\":2450:2452   */\n      0x20\n        /* \"#utility.yul\":2439:2448   */\n      dup3\n        /* \"#utility.yul\":2435:2453   */\n      add\n        /* \"#utility.yul\":2427:2453   */\n      swap1\n      pop\n        /* \"#utility.yul\":2499:2508   */\n      dup2\n        /* \"#utility.yul\":2493:2497   */\n      dup2\n        /* \"#utility.yul\":2489:2509   */\n      sub\n        /* \"#utility.yul\":2485:2486   */\n      0x00\n        /* \"#utility.yul\":2474:2483   */\n      dup4\n        /* \"#utility.yul\":2470:2487   */\n      add\n        /* \"#utility.yul\":2463:2510   */\n      mstore\n        /* \"#utility.yul\":2527:2658   */\n      tag_100\n        /* \"#utility.yul\":2653:2657   */\n      dup2\n        /* \"#utility.yul\":2527:2658   */\n      tag_80\n      jump\t// in\n    tag_100:\n        /* \"#utility.yul\":2519:2658   */\n      swap1\n      pop\n        /* \"#utility.yul\":2417:2665   */\n      swap2\n      swap1\n      pop\n      jump\t// out\n        /* \"#utility.yul\":2671:3090   */\n    tag_62:\n      0x00\n        /* \"#utility.yul\":2875:2877   */\n      0x20\n        /* \"#utility.yul\":2864:2873   */\n      dup3\n        /* \"#utility.yul\":2860:2878   */\n      add\n        /* \"#utility.yul\":2852:2878   */\n      swap1\n      pop\n        /* \"#utility.yul\":2924:2933   */\n      dup2\n        /* \"#utility.yul\":2918:2922   */\n      dup2\n        /* \"#utility.yul\":2914:2934   */\n      sub\n        /* \"#utility.yul\":2910:2911   */\n      0x00\n        /* \"#utility.yul\":2899:2908   */\n      dup4\n        /* \"#utility.yul\":2895:2912   */\n      add\n        /* \"#utility.yul\":2888:2935   */\n      mstore\n        /* \"#utility.yul\":2952:3083   */\n      tag_102\n        /* \"#utility.yul\":3078:3082   */\n      dup2\n        /* \"#utility.yul\":2952:3083   */\n      tag_84\n      jump\t// in\n    tag_102:\n        /* \"#utility.yul\":2944:3083   */\n      swap1\n      pop\n        /* \"#utility.yul\":2842:3090   */\n      swap2\n      swap1\n      pop\n      jump\t// out\n        /* \"#utility.yul\":3096:3515   */\n    tag_65:\n      0x00\n        /* \"#utility.yul\":3300:3302   */\n      0x20\n        /* \"#utility.yul\":3289:3298   */\n      dup3\n        /* \"#utility.yul\":3285:3303   */\n      add\n        /* \"#utility.yul\":3277:3303   */\n      swap1\n      pop\n        /* \"#utility.yul\":3349:3358   */\n      dup2\n        /* \"#utility.yul\":3343:3347   */\n      dup2\n        /* \"#utility.yul\":3339:3359   */\n      sub\n        /* \"#utility.yul\":3335:3336   */\n      0x00\n        /* \"#utility.yul\":3324:3333   */\n      dup4\n        /* \"#utility.yul\":3320:3337   */\n      add\n        /* \"#utility.yul\":3313:3360   */\n      mstore\n        /* \"#utility.yul\":3377:3508   */\n      tag_104\n        /* \"#utility.yul\":3503:3507   */\n      dup2\n        /* \"#utility.yul\":3377:3508   */\n      tag_87\n      jump\t// in\n    tag_104:\n        /* \"#utility.yul\":3369:3508   */\n      swap1\n      pop\n        /* \"#utility.yul\":3267:3515   */\n      swap2\n      swap1\n      pop\n      jump\t// out\n        /* \"#utility.yul\":3521:3940   */\n    tag_53:\n      0x00\n        /* \"#utility.yul\":3725:3727   */\n      0x20\n        /* \"#utility.yul\":3714:3723   */\n      dup3\n        /* \"#utility.yul\":3710:3728   */\n      add\n        /* \"#utility.yul\":3702:3728   */\n      swap1\n      pop\n        /* \"#utility.yul\":3774:3783   */\n      dup2\n        /* \"#utility.yul\":3768:3772   */\n      dup2\n        /* \"#utility.yul\":3764:3784   */\n      sub\n        /* \"#utility.yul\":3760:3761   */\n      0x00\n        /* \"#utility.yul\":3749:3758   */\n      dup4\n        /* \"#utility.yul\":3745:3762   */\n      add\n        /* \"#utility.yul\":3738:3785   */\n      mstore\n        /* \"#utility.yul\":3802:3933   */\n      tag_106\n        /* \"#utility.yul\":3928:3932   */\n      dup2\n        /* \"#utility.yul\":3802:3933   */\n      tag_90\n      jump\t// in\n    tag_106:\n        /* \"#utility.yul\":3794:3933   */\n      swap1\n      pop\n        /* \"#utility.yul\":3692:3940   */\n      swap2\n      swap1\n      pop\n      jump\t// out\n        /* \"#utility.yul\":3946:4168   */\n    tag_16:\n      0x00\n        /* \"#utility.yul\":4077:4079   */\n      0x20\n        /* \"#utility.yul\":4066:4075   */\n      dup3\n        /* \"#utility.yul\":4062:4080   */\n      add\n        /* \"#utility.yul\":4054:4080   */\n      swap1\n      pop\n        /* \"#utility.yul\":4090:4161   */\n      tag_108\n        /* \"#utility.yul\":4158:4159   */\n      0x00\n        /* \"#utility.yul\":4147:4156   */\n      dup4\n        /* \"#utility.yul\":4143:4160   */\n      add\n        /* \"#utility.yul\":4134:4140   */\n      dup5\n        /* \"#utility.yul\":4090:4161   */\n      tag_93\n      jump\t// in\n    tag_108:\n        /* \"#utility.yul\":4044:4168   */\n      swap3\n      swap2\n      pop\n      pop\n      jump\t// out\n        /* \"#utility.yul\":4174:4343   */\n    tag_83:\n      0x00\n        /* \"#utility.yul\":4292:4298   */\n      dup3\n        /* \"#utility.yul\":4287:4290   */\n      dup3\n        /* \"#utility.yul\":4280:4299   */\n      mstore\n        /* \"#utility.yul\":4332:4336   */\n      0x20\n        /* \"#utility.yul\":4327:4330   */\n      dup3\n        /* \"#utility.yul\":4323:4337   */\n      add\n        /* \"#utility.yul\":4308:4337   */\n      swap1\n      pop\n        /* \"#utility.yul\":4270:4343   */\n      swap3\n      swap2\n      pop\n      pop\n      jump\t// out\n        /* \"#utility.yul\":4349:4654   */\n    tag_59:\n      0x00\n        /* \"#utility.yul\":4408:4428   */\n      tag_111\n        /* \"#utility.yul\":4426:4427   */\n      dup3\n        /* \"#utility.yul\":4408:4428   */\n      tag_96\n      jump\t// in\n    tag_111:\n        /* \"#utility.yul\":4403:4428   */\n      swap2\n      pop\n        /* \"#utility.yul\":4442:4462   */\n      tag_112\n        /* \"#utility.yul\":4460:4461   */\n      dup4\n        /* \"#utility.yul\":4442:4462   */\n      tag_96\n      jump\t// in\n    tag_112:\n        /* \"#utility.yul\":4437:4462   */\n      swap3\n      pop\n        /* \"#utility.yul\":4596:4597   */\n      dup3\n        /* \"#utility.yul\":4528:4594   */\n      0xffffffffffffffffffffffffffffffffffffffffffffffffffffffffffffffff\n        /* \"#utility.yul\":4524:4598   */\n      sub\n        /* \"#utility.yul\":4521:4522   */\n      dup3\n        /* \"#utility.yul\":4518:4599   */\n      gt\n        /* \"#utility.yul\":4515:4517   */\n      iszero\n      tag_113\n      jumpi\n        /* \"#utility.yul\":4602:4620   */\n      tag_114\n      tag_115\n      jump\t// in\n    tag_114:\n        /* \"#utility.yul\":4515:4517   */\n    tag_113:\n        /* \"#utility.yul\":4646:4647   */\n      dup3\n        /* \"#utility.yul\":4643:4644   */\n      dup3\n        /* \"#utility.yul\":4639:4648   */\n      add\n        /* \"#utility.yul\":4632:4648   */\n      swap1\n      pop\n        /* \"#utility.yul\":4393:4654   */\n      swap3\n      swap2\n      pop\n      pop\n      jump\t// out\n        /* \"#utility.yul\":4660:4756   */\n    tag_79:\n      0x00\n        /* \"#utility.yul\":4726:4750   */\n      tag_117\n        /* \"#utility.yul\":4744:4749   */\n      dup3\n        /* \"#utility.yul\":4726:4750   */\n      tag_118\n      jump\t// in\n    tag_117:\n        /* \"#utility.yul\":4715:4750   */\n      swap1\n      pop\n        /* \"#utility.yul\":4705:4756   */\n      swap2\n      swap1\n      pop\n      jump\t// out\n        /* \"#utility.yul\":4762:4888   */\n    tag_118:\n      0x00\n        /* \"#utility.yul\":4839:4881   */\n      0xffffffffffffffffffffffffffffffffffffffff\n        /* \"#utility.yul\":4832:4837   */\n      dup3\n        /* \"#utility.yul\":4828:4882   */\n      and\n        /* \"#utility.yul\":4817:4882   */\n      swap1\n      pop\n        /* \"#utility.yul\":4807:4888   */\n      swap2\n      swap1\n      pop\n      jump\t// out\n        /* \"#utility.yul\":4894:4971   */\n    tag_96:\n      0x00\n        /* \"#utility.yul\":4960:4965   */\n      dup2\n        /* \"#utility.yul\":4949:4965   */\n      swap1\n      pop\n        /* \"#utility.yul\":4939:4971   */\n      swap2\n      swap1\n      pop\n      jump\t// out\n        /* \"#utility.yul\":4977:5157   */\n    tag_115:\n        /* \"#utility.yul\":5025:5102   */\n      0x4e487b7100000000000000000000000000000000000000000000000000000000\n        /* \"#utility.yul\":5022:5023   */\n      0x00\n        /* \"#utility.yul\":5015:5103   */\n      mstore\n        /* \"#utility.yul\":5122:5126   */\n      0x11\n        /* \"#utility.yul\":5119:5120   */\n      0x04\n        /* \"#utility.yul\":5112:5127   */\n      mstore\n        /* \"#utility.yul\":5146:5150   */\n      0x24\n        /* \"#utility.yul\":5143:5144   */\n      0x00\n        /* \"#utility.yul\":5136:5151   */\n      revert\n        /* \"#utility.yul\":5163:5285   */\n    tag_72:\n        /* \"#utility.yul\":5236:5260   */\n      tag_123\n        /* \"#utility.yul\":5254:5259   */\n      dup2\n        /* \"#utility.yul\":5236:5260   */\n      tag_79\n      jump\t// in\n    tag_123:\n        /* \"#utility.yul\":5229:5234   */\n      dup2\n        /* \"#utility.yul\":5226:5261   */\n      eq\n        /* \"#utility.yul\":5216:5218   */\n      tag_124\n      jumpi\n        /* \"#utility.yul\":5275:5276   */\n      0x00\n        /* \"#utility.yul\":5272:5273   */\n      dup1\n        /* \"#utility.yul\":5265:5277   */\n      revert\n        /* \"#utility.yul\":5216:5218   */\n    tag_124:\n        /* \"#utility.yul\":5206:5285   */\n      pop\n      jump\t// out\n\n    auxdata: 0xa26469706673582212200e1425022e75f388795c21517dea658465f0ff756f40de2ef2c9d78c7d1f68cb64736f6c63430008000033\n}\n",
				"bytecode": {
					"linkReferences": {},
					"object": "608060405234801561001057600080fd5b50336000806101000a81548173ffffffffffffffffffffffffffffffffffffffff021916908373ffffffffffffffffffffffffffffffffffffffff16021790555067016345785d8a00006001819055506014600281905550612773600381905550606d6002546064610082919061012f565b60015461008f91906100d5565b61009991906100a4565b6004819055506101cb565b60006100af82610163565b91506100ba83610163565b9250826100ca576100c961019c565b5b828204905092915050565b60006100e082610163565b91506100eb83610163565b9250817fffffffffffffffffffffffffffffffffffffffffffffffffffffffffffffffff04831182151516156101245761012361016d565b5b828202905092915050565b600061013a82610163565b915061014583610163565b9250828210156101585761015761016d565b5b828203905092915050565b6000819050919050565b7f4e487b7100000000000000000000000000000000000000000000000000000000600052601160045260246000fd5b7f4e487b7100000000000000000000000000000000000000000000000000000000600052601260045260246000fd5b610828806101da6000396000f3fe6080604052600436106100865760003560e01c80635c2c2005116100595780635c2c20051461014957806371e928af14610174578063be040fb014610190578063d91a5d88146101a7578063e6c0e6d5146101d257610086565b80630199ceaa1461008b578063204f83f9146100b657806327e235e3146100e157806344fd9caa1461011e575b600080fd5b34801561009757600080fd5b506100a06101fd565b6040516100ad91906106ee565b60405180910390f35b3480156100c257600080fd5b506100cb610203565b6040516100d891906106ee565b60405180910390f35b3480156100ed57600080fd5b50610108600480360381019061010391906104e6565b610209565b60405161011591906106ee565b60405180910390f35b34801561012a57600080fd5b50610133610221565b60405161014091906106ee565b60405180910390f35b34801561015557600080fd5b5061015e610227565b60405161016b91906106ee565b60405180910390f35b61018e600480360381019061018991906104e6565b61022d565b005b34801561019c57600080fd5b506101a5610343565b005b3480156101b357600080fd5b506101bc6104a7565b6040516101c99190610653565b60405180910390f35b3480156101de57600080fd5b506101e76104cb565b6040516101f491906106ee565b60405180910390f35b60055481565b60035481565b60066020528060005260406000206000915090505481565b60015481565b60045481565b6004543414610271576040517f08c379a0000000000000000000000000000000000000000000000000000000008152600401610268906106ce565b60405180910390fd5b6000600660008373ffffffffffffffffffffffffffffffffffffffff1673ffffffffffffffffffffffffffffffffffffffff16815260200190815260200160002054146102f3576040517f08c379a00000000000000000000000000000000000000000000000000000000081526004016102ea9061066e565b60405180910390fd5b43600581905550600154600660008373ffffffffffffffffffffffffffffffffffffffff1673ffffffffffffffffffffffffffffffffffffffff1681526020019081526020016000208190555050565b600354600554610353919061071a565b431015610395576040517f08c379a000000000000000000000000000000000000000000000000000000000815260040161038c9061068e565b60405180910390fd5b6000600660003373ffffffffffffffffffffffffffffffffffffffff1673ffffffffffffffffffffffffffffffffffffffff1681526020019081526020016000205411610417576040517f08c379a000000000000000000000000000000000000000000000000000000000815260040161040e906106ae565b60405180910390fd5b3373ffffffffffffffffffffffffffffffffffffffff166108fc6001549081150290604051600060405180830381858888f1935050505015801561045f573d6000803e3d6000fd5b506000600660003373ffffffffffffffffffffffffffffffffffffffff1673ffffffffffffffffffffffffffffffffffffffff16815260200190815260200160002081905550565b60008054906101000a900473ffffffffffffffffffffffffffffffffffffffff1681565b60025481565b6000813590506104e0816107db565b92915050565b6000602082840312156104f857600080fd5b6000610506848285016104d1565b91505092915050565b61051881610770565b82525050565b600061052b602383610709565b91507f426f6e6420612072656164792069737375656420744f2074686973206164647260008301527f65737300000000000000000000000000000000000000000000000000000000006020830152604082019050919050565b6000610591601883610709565b91507f426f6e6420686173206e6f74206d6174757265642079657400000000000000006000830152602082019050919050565b60006105d1601183610709565b91507f4e4f20626f6e6420744f2072656465656d0000000000000000000000000000006000830152602082019050919050565b6000610611601883610709565b91507f6c6e636f7272656374207061796d656e7420616d6f756e7400000000000000006000830152602082019050919050565b61064d816107a2565b82525050565b6000602082019050610668600083018461050f565b92915050565b600060208201905081810360008301526106878161051e565b9050919050565b600060208201905081810360008301526106a781610584565b9050919050565b600060208201905081810360008301526106c7816105c4565b9050919050565b600060208201905081810360008301526106e781610604565b9050919050565b60006020820190506107036000830184610644565b92915050565b600082825260208201905092915050565b6000610725826107a2565b9150610730836107a2565b9250827fffffffffffffffffffffffffffffffffffffffffffffffffffffffffffffffff03821115610765576107646107ac565b5b828201905092915050565b600061077b82610782565b9050919050565b600073ffffffffffffffffffffffffffffffffffffffff82169050919050565b6000819050919050565b7f4e487b7100000000000000000000000000000000000000000000000000000000600052601160045260246000fd5b6107e481610770565b81146107ef57600080fd5b5056fea26469706673582212200e1425022e75f388795c21517dea658465f0ff756f40de2ef2c9d78c7d1f68cb64736f6c63430008000033",
					"opcodes": "PUSH1 0x80 PUSH1 0x40 MSTORE CALLVALUE DUP1 ISZERO PUSH2 0x10 JUMPI PUSH1 0x0 DUP1 REVERT JUMPDEST POP CALLER PUSH1 0x0 DUP1 PUSH2 0x100 EXP DUP2 SLOAD DUP2 PUSH20 0xFFFFFFFFFFFFFFFFFFFFFFFFFFFFFFFFFFFFFFFF MUL NOT AND SWAP1 DUP4 PUSH20 0xFFFFFFFFFFFFFFFFFFFFFFFFFFFFFFFFFFFFFFFF AND MUL OR SWAP1 SSTORE POP PUSH8 0x16345785D8A0000 PUSH1 0x1 DUP2 SWAP1 SSTORE POP PUSH1 0x14 PUSH1 0x2 DUP2 SWAP1 SSTORE POP PUSH2 0x2773 PUSH1 0x3 DUP2 SWAP1 SSTORE POP PUSH1 0x6D PUSH1 0x2 SLOAD PUSH1 0x64 PUSH2 0x82 SWAP2 SWAP1 PUSH2 0x12F JUMP JUMPDEST PUSH1 0x1 SLOAD PUSH2 0x8F SWAP2 SWAP1 PUSH2 0xD5 JUMP JUMPDEST PUSH2 0x99 SWAP2 SWAP1 PUSH2 0xA4 JUMP JUMPDEST PUSH1 0x4 DUP2 SWAP1 SSTORE POP PUSH2 0x1CB JUMP JUMPDEST PUSH1 0x0 PUSH2 0xAF DUP3 PUSH2 0x163 JUMP JUMPDEST SWAP2 POP PUSH2 0xBA DUP4 PUSH2 0x163 JUMP JUMPDEST SWAP3 POP DUP3 PUSH2 0xCA JUMPI PUSH2 0xC9 PUSH2 0x19C JUMP JUMPDEST JUMPDEST DUP3 DUP3 DIV SWAP1 POP SWAP3 SWAP2 POP POP JUMP JUMPDEST PUSH1 0x0 PUSH2 0xE0 DUP3 PUSH2 0x163 JUMP JUMPDEST SWAP2 POP PUSH2 0xEB DUP4 PUSH2 0x163 JUMP JUMPDEST SWAP3 POP DUP2 PUSH32 0xFFFFFFFFFFFFFFFFFFFFFFFFFFFFFFFFFFFFFFFFFFFFFFFFFFFFFFFFFFFFFFFF DIV DUP4 GT DUP3 ISZERO ISZERO AND ISZERO PUSH2 0x124 JUMPI PUSH2 0x123 PUSH2 0x16D JUMP JUMPDEST JUMPDEST DUP3 DUP3 MUL SWAP1 POP SWAP3 SWAP2 POP POP JUMP JUMPDEST PUSH1 0x0 PUSH2 0x13A DUP3 PUSH2 0x163 JUMP JUMPDEST SWAP2 POP PUSH2 0x145 DUP4 PUSH2 0x163 JUMP JUMPDEST SWAP3 POP DUP3 DUP3 LT ISZERO PUSH2 0x158 JUMPI PUSH2 0x157 PUSH2 0x16D JUMP JUMPDEST JUMPDEST DUP3 DUP3 SUB SWAP1 POP SWAP3 SWAP2 POP POP JUMP JUMPDEST PUSH1 0x0 DUP2 SWAP1 POP SWAP2 SWAP1 POP JUMP JUMPDEST PUSH32 0x4E487B7100000000000000000000000000000000000000000000000000000000 PUSH1 0x0 MSTORE PUSH1 0x11 PUSH1 0x4 MSTORE PUSH1 0x24 PUSH1 0x0 REVERT JUMPDEST PUSH32 0x4E487B7100000000000000000000000000000000000000000000000000000000 PUSH1 0x0 MSTORE PUSH1 0x12 PUSH1 0x4 MSTORE PUSH1 0x24 PUSH1 0x0 REVERT JUMPDEST PUSH2 0x828 DUP1 PUSH2 0x1DA PUSH1 0x0 CODECOPY PUSH1 0x0 RETURN INVALID PUSH1 0x80 PUSH1 0x40 MSTORE PUSH1 0x4 CALLDATASIZE LT PUSH2 0x86 JUMPI PUSH1 0x0 CALLDATALOAD PUSH1 0xE0 SHR DUP1 PUSH4 0x5C2C2005 GT PUSH2 0x59 JUMPI DUP1 PUSH4 0x5C2C2005 EQ PUSH2 0x149 JUMPI DUP1 PUSH4 0x71E928AF EQ PUSH2 0x174 JUMPI DUP1 PUSH4 0xBE040FB0 EQ PUSH2 0x190 JUMPI DUP1 PUSH4 0xD91A5D88 EQ PUSH2 0x1A7 JUMPI DUP1 PUSH4 0xE6C0E6D5 EQ PUSH2 0x1D2 JUMPI PUSH2 0x86 JUMP JUMPDEST DUP1 PUSH4 0x199CEAA EQ PUSH2 0x8B JUMPI DUP1 PUSH4 0x204F83F9 EQ PUSH2 0xB6 JUMPI DUP1 PUSH4 0x27E235E3 EQ PUSH2 0xE1 JUMPI DUP1 PUSH4 0x44FD9CAA EQ PUSH2 0x11E JUMPI JUMPDEST PUSH1 0x0 DUP1 REVERT JUMPDEST CALLVALUE DUP1 ISZERO PUSH2 0x97 JUMPI PUSH1 0x0 DUP1 REVERT JUMPDEST POP PUSH2 0xA0 PUSH2 0x1FD JUMP JUMPDEST PUSH1 0x40 MLOAD PUSH2 0xAD SWAP2 SWAP1 PUSH2 0x6EE JUMP JUMPDEST PUSH1 0x40 MLOAD DUP1 SWAP2 SUB SWAP1 RETURN JUMPDEST CALLVALUE DUP1 ISZERO PUSH2 0xC2 JUMPI PUSH1 0x0 DUP1 REVERT JUMPDEST POP PUSH2 0xCB PUSH2 0x203 JUMP JUMPDEST PUSH1 0x40 MLOAD PUSH2 0xD8 SWAP2 SWAP1 PUSH2 0x6EE JUMP JUMPDEST PUSH1 0x40 MLOAD DUP1 SWAP2 SUB SWAP1 RETURN JUMPDEST CALLVALUE DUP1 ISZERO PUSH2 0xED JUMPI PUSH1 0x0 DUP1 REVERT JUMPDEST POP PUSH2 0x108 PUSH1 0x4 DUP1 CALLDATASIZE SUB DUP2 ADD SWAP1 PUSH2 0x103 SWAP2 SWAP1 PUSH2 0x4E6 JUMP JUMPDEST PUSH2 0x209 JUMP JUMPDEST PUSH1 0x40 MLOAD PUSH2 0x115 SWAP2 SWAP1 PUSH2 0x6EE JUMP JUMPDEST PUSH1 0x40 MLOAD DUP1 SWAP2 SUB SWAP1 RETURN JUMPDEST CALLVALUE DUP1 ISZERO PUSH2 0x12A JUMPI PUSH1 0x0 DUP1 REVERT JUMPDEST POP PUSH2 0x133 PUSH2 0x221 JUMP JUMPDEST PUSH1 0x40 MLOAD PUSH2 0x140 SWAP2 SWAP1 PUSH2 0x6EE JUMP JUMPDEST PUSH1 0x40 MLOAD DUP1 SWAP2 SUB SWAP1 RETURN JUMPDEST CALLVALUE DUP1 ISZERO PUSH2 0x155 JUMPI PUSH1 0x0 DUP1 REVERT JUMPDEST POP PUSH2 0x15E PUSH2 0x227 JUMP JUMPDEST PUSH1 0x40 MLOAD PUSH2 0x16B SWAP2 SWAP1 PUSH2 0x6EE JUMP JUMPDEST PUSH1 0x40 MLOAD DUP1 SWAP2 SUB SWAP1 RETURN JUMPDEST PUSH2 0x18E PUSH1 0x4 DUP1 CALLDATASIZE SUB DUP2 ADD SWAP1 PUSH2 0x189 SWAP2 SWAP1 PUSH2 0x4E6 JUMP JUMPDEST PUSH2 0x22D JUMP JUMPDEST STOP JUMPDEST CALLVALUE DUP1 ISZERO PUSH2 0x19C JUMPI PUSH1 0x0 DUP1 REVERT JUMPDEST POP PUSH2 0x1A5 PUSH2 0x343 JUMP JUMPDEST STOP JUMPDEST CALLVALUE DUP1 ISZERO PUSH2 0x1B3 JUMPI PUSH1 0x0 DUP1 REVERT JUMPDEST POP PUSH2 0x1BC PUSH2 0x4A7 JUMP JUMPDEST PUSH1 0x40 MLOAD PUSH2 0x1C9 SWAP2 SWAP1 PUSH2 0x653 JUMP JUMPDEST PUSH1 0x40 MLOAD DUP1 SWAP2 SUB SWAP1 RETURN JUMPDEST CALLVALUE DUP1 ISZERO PUSH2 0x1DE JUMPI PUSH1 0x0 DUP1 REVERT JUMPDEST POP PUSH2 0x1E7 PUSH2 0x4CB JUMP JUMPDEST PUSH1 0x40 MLOAD PUSH2 0x1F4 SWAP2 SWAP1 PUSH2 0x6EE JUMP JUMPDEST PUSH1 0x40 MLOAD DUP1 SWAP2 SUB SWAP1 RETURN JUMPDEST PUSH1 0x5 SLOAD DUP2 JUMP JUMPDEST PUSH1 0x3 SLOAD DUP2 JUMP JUMPDEST PUSH1 0x6 PUSH1 0x20 MSTORE DUP1 PUSH1 0x0 MSTORE PUSH1 0x40 PUSH1 0x0 KECCAK256 PUSH1 0x0 SWAP2 POP SWAP1 POP SLOAD DUP2 JUMP JUMPDEST PUSH1 0x1 SLOAD DUP2 JUMP JUMPDEST PUSH1 0x4 SLOAD DUP2 JUMP JUMPDEST PUSH1 0x4 SLOAD CALLVALUE EQ PUSH2 0x271 JUMPI PUSH1 0x40 MLOAD PUSH32 0x8C379A000000000000000000000000000000000000000000000000000000000 DUP2 MSTORE PUSH1 0x4 ADD PUSH2 0x268 SWAP1 PUSH2 0x6CE JUMP JUMPDEST PUSH1 0x40 MLOAD DUP1 SWAP2 SUB SWAP1 REVERT JUMPDEST PUSH1 0x0 PUSH1 0x6 PUSH1 0x0 DUP4 PUSH20 0xFFFFFFFFFFFFFFFFFFFFFFFFFFFFFFFFFFFFFFFF AND PUSH20 0xFFFFFFFFFFFFFFFFFFFFFFFFFFFFFFFFFFFFFFFF AND DUP2 MSTORE PUSH1 0x20 ADD SWAP1 DUP2 MSTORE PUSH1 0x20 ADD PUSH1 0x0 KECCAK256 SLOAD EQ PUSH2 0x2F3 JUMPI PUSH1 0x40 MLOAD PUSH32 0x8C379A000000000000000000000000000000000000000000000000000000000 DUP2 MSTORE PUSH1 0x4 ADD PUSH2 0x2EA SWAP1 PUSH2 0x66E JUMP JUMPDEST PUSH1 0x40 MLOAD DUP1 SWAP2 SUB SWAP1 REVERT JUMPDEST NUMBER PUSH1 0x5 DUP2 SWAP1 SSTORE POP PUSH1 0x1 SLOAD PUSH1 0x6 PUSH1 0x0 DUP4 PUSH20 0xFFFFFFFFFFFFFFFFFFFFFFFFFFFFFFFFFFFFFFFF AND PUSH20 0xFFFFFFFFFFFFFFFFFFFFFFFFFFFFFFFFFFFFFFFF AND DUP2 MSTORE PUSH1 0x20 ADD SWAP1 DUP2 MSTORE PUSH1 0x20 ADD PUSH1 0x0 KECCAK256 DUP2 SWAP1 SSTORE POP POP JUMP JUMPDEST PUSH1 0x3 SLOAD PUSH1 0x5 SLOAD PUSH2 0x353 SWAP2 SWAP1 PUSH2 0x71A JUMP JUMPDEST NUMBER LT ISZERO PUSH2 0x395 JUMPI PUSH1 0x40 MLOAD PUSH32 0x8C379A000000000000000000000000000000000000000000000000000000000 DUP2 MSTORE PUSH1 0x4 ADD PUSH2 0x38C SWAP1 PUSH2 0x68E JUMP JUMPDEST PUSH1 0x40 MLOAD DUP1 SWAP2 SUB SWAP1 REVERT JUMPDEST PUSH1 0x0 PUSH1 0x6 PUSH1 0x0 CALLER PUSH20 0xFFFFFFFFFFFFFFFFFFFFFFFFFFFFFFFFFFFFFFFF AND PUSH20 0xFFFFFFFFFFFFFFFFFFFFFFFFFFFFFFFFFFFFFFFF AND DUP2 MSTORE PUSH1 0x20 ADD SWAP1 DUP2 MSTORE PUSH1 0x20 ADD PUSH1 0x0 KECCAK256 SLOAD GT PUSH2 0x417 JUMPI PUSH1 0x40 MLOAD PUSH32 0x8C379A000000000000000000000000000000000000000000000000000000000 DUP2 MSTORE PUSH1 0x4 ADD PUSH2 0x40E SWAP1 PUSH2 0x6AE JUMP JUMPDEST PUSH1 0x40 MLOAD DUP1 SWAP2 SUB SWAP1 REVERT JUMPDEST CALLER PUSH20 0xFFFFFFFFFFFFFFFFFFFFFFFFFFFFFFFFFFFFFFFF AND PUSH2 0x8FC PUSH1 0x1 SLOAD SWAP1 DUP2 ISZERO MUL SWAP1 PUSH1 0x40 MLOAD PUSH1 0x0 PUSH1 0x40 MLOAD DUP1 DUP4 SUB DUP2 DUP6 DUP9 DUP9 CALL SWAP4 POP POP POP POP ISZERO DUP1 ISZERO PUSH2 0x45F JUMPI RETURNDATASIZE PUSH1 0x0 DUP1 RETURNDATACOPY RETURNDATASIZE PUSH1 0x0 REVERT JUMPDEST POP PUSH1 0x0 PUSH1 0x6 PUSH1 0x0 CALLER PUSH20 0xFFFFFFFFFFFFFFFFFFFFFFFFFFFFFFFFFFFFFFFF AND PUSH20 0xFFFFFFFFFFFFFFFFFFFFFFFFFFFFFFFFFFFFFFFF AND DUP2 MSTORE PUSH1 0x20 ADD SWAP1 DUP2 MSTORE PUSH1 0x20 ADD PUSH1 0x0 KECCAK256 DUP2 SWAP1 SSTORE POP JUMP JUMPDEST PUSH1 0x0 DUP1 SLOAD SWAP1 PUSH2 0x100 EXP SWAP1 DIV PUSH20 0xFFFFFFFFFFFFFFFFFFFFFFFFFFFFFFFFFFFFFFFF AND DUP2 JUMP JUMPDEST PUSH1 0x2 SLOAD DUP2 JUMP JUMPDEST PUSH1 0x0 DUP2 CALLDATALOAD SWAP1 POP PUSH2 0x4E0 DUP2 PUSH2 0x7DB JUMP JUMPDEST SWAP3 SWAP2 POP POP JUMP JUMPDEST PUSH1 0x0 PUSH1 0x20 DUP3 DUP5 SUB SLT ISZERO PUSH2 0x4F8 JUMPI PUSH1 0x0 DUP1 REVERT JUMPDEST PUSH1 0x0 PUSH2 0x506 DUP5 DUP3 DUP6 ADD PUSH2 0x4D1 JUMP JUMPDEST SWAP2 POP POP SWAP3 SWAP2 POP POP JUMP JUMPDEST PUSH2 0x518 DUP2 PUSH2 0x770 JUMP JUMPDEST DUP3 MSTORE POP POP JUMP JUMPDEST PUSH1 0x0 PUSH2 0x52B PUSH1 0x23 DUP4 PUSH2 0x709 JUMP JUMPDEST SWAP2 POP PUSH32 0x426F6E6420612072656164792069737375656420744F20746869732061646472 PUSH1 0x0 DUP4 ADD MSTORE PUSH32 0x6573730000000000000000000000000000000000000000000000000000000000 PUSH1 0x20 DUP4 ADD MSTORE PUSH1 0x40 DUP3 ADD SWAP1 POP SWAP2 SWAP1 POP JUMP JUMPDEST PUSH1 0x0 PUSH2 0x591 PUSH1 0x18 DUP4 PUSH2 0x709 JUMP JUMPDEST SWAP2 POP PUSH32 0x426F6E6420686173206E6F74206D617475726564207965740000000000000000 PUSH1 0x0 DUP4 ADD MSTORE PUSH1 0x20 DUP3 ADD SWAP1 POP SWAP2 SWAP1 POP JUMP JUMPDEST PUSH1 0x0 PUSH2 0x5D1 PUSH1 0x11 DUP4 PUSH2 0x709 JUMP JUMPDEST SWAP2 POP PUSH32 0x4E4F20626F6E6420744F2072656465656D000000000000000000000000000000 PUSH1 0x0 DUP4 ADD MSTORE PUSH1 0x20 DUP3 ADD SWAP1 POP SWAP2 SWAP1 POP JUMP JUMPDEST PUSH1 0x0 PUSH2 0x611 PUSH1 0x18 DUP4 PUSH2 0x709 JUMP JUMPDEST SWAP2 POP PUSH32 0x6C6E636F7272656374207061796D656E7420616D6F756E740000000000000000 PUSH1 0x0 DUP4 ADD MSTORE PUSH1 0x20 DUP3 ADD SWAP1 POP SWAP2 SWAP1 POP JUMP JUMPDEST PUSH2 0x64D DUP2 PUSH2 0x7A2 JUMP JUMPDEST DUP3 MSTORE POP POP JUMP JUMPDEST PUSH1 0x0 PUSH1 0x20 DUP3 ADD SWAP1 POP PUSH2 0x668 PUSH1 0x0 DUP4 ADD DUP5 PUSH2 0x50F JUMP JUMPDEST SWAP3 SWAP2 POP POP JUMP JUMPDEST PUSH1 0x0 PUSH1 0x20 DUP3 ADD SWAP1 POP DUP2 DUP2 SUB PUSH1 0x0 DUP4 ADD MSTORE PUSH2 0x687 DUP2 PUSH2 0x51E JUMP JUMPDEST SWAP1 POP SWAP2 SWAP1 POP JUMP JUMPDEST PUSH1 0x0 PUSH1 0x20 DUP3 ADD SWAP1 POP DUP2 DUP2 SUB PUSH1 0x0 DUP4 ADD MSTORE PUSH2 0x6A7 DUP2 PUSH2 0x584 JUMP JUMPDEST SWAP1 POP SWAP2 SWAP1 POP JUMP JUMPDEST PUSH1 0x0 PUSH1 0x20 DUP3 ADD SWAP1 POP DUP2 DUP2 SUB PUSH1 0x0 DUP4 ADD MSTORE PUSH2 0x6C7 DUP2 PUSH2 0x5C4 JUMP JUMPDEST SWAP1 POP SWAP2 SWAP1 POP JUMP JUMPDEST PUSH1 0x0 PUSH1 0x20 DUP3 ADD SWAP1 POP DUP2 DUP2 SUB PUSH1 0x0 DUP4 ADD MSTORE PUSH2 0x6E7 DUP2 PUSH2 0x604 JUMP JUMPDEST SWAP1 POP SWAP2 SWAP1 POP JUMP JUMPDEST PUSH1 0x0 PUSH1 0x20 DUP3 ADD SWAP1 POP PUSH2 0x703 PUSH1 0x0 DUP4 ADD DUP5 PUSH2 0x644 JUMP JUMPDEST SWAP3 SWAP2 POP POP JUMP JUMPDEST PUSH1 0x0 DUP3 DUP3 MSTORE PUSH1 0x20 DUP3 ADD SWAP1 POP SWAP3 SWAP2 POP POP JUMP JUMPDEST PUSH1 0x0 PUSH2 0x725 DUP3 PUSH2 0x7A2 JUMP JUMPDEST SWAP2 POP PUSH2 0x730 DUP4 PUSH2 0x7A2 JUMP JUMPDEST SWAP3 POP DUP3 PUSH32 0xFFFFFFFFFFFFFFFFFFFFFFFFFFFFFFFFFFFFFFFFFFFFFFFFFFFFFFFFFFFFFFFF SUB DUP3 GT ISZERO PUSH2 0x765 JUMPI PUSH2 0x764 PUSH2 0x7AC JUMP JUMPDEST JUMPDEST DUP3 DUP3 ADD SWAP1 POP SWAP3 SWAP2 POP POP JUMP JUMPDEST PUSH1 0x0 PUSH2 0x77B DUP3 PUSH2 0x782 JUMP JUMPDEST SWAP1 POP SWAP2 SWAP1 POP JUMP JUMPDEST PUSH1 0x0 PUSH20 0xFFFFFFFFFFFFFFFFFFFFFFFFFFFFFFFFFFFFFFFF DUP3 AND SWAP1 POP SWAP2 SWAP1 POP JUMP JUMPDEST PUSH1 0x0 DUP2 SWAP1 POP SWAP2 SWAP1 POP JUMP JUMPDEST PUSH32 0x4E487B7100000000000000000000000000000000000000000000000000000000 PUSH1 0x0 MSTORE PUSH1 0x11 PUSH1 0x4 MSTORE PUSH1 0x24 PUSH1 0x0 REVERT JUMPDEST PUSH2 0x7E4 DUP2 PUSH2 0x770 JUMP JUMPDEST DUP2 EQ PUSH2 0x7EF JUMPI PUSH1 0x0 DUP1 REVERT JUMPDEST POP JUMP INVALID LOG2 PUSH5 0x6970667358 0x22 SLT KECCAK256 0xE EQ 0x25 MUL 0x2E PUSH22 0xF388795C21517DEA658465F0FF756F40DE2EF2C9D78C PUSH30 0x1F68CB64736F6C6343000800003300000000000000000000000000000000 "
				},
				"gasEstimates": {
					"creation": {
						"codeDepositCost": "417600",
						"executionCost": "infinite",
						"totalCost": "infinite"
					},
					"external": {
						"balances(address)": "1559",
						"discountRate()": "1217",
						"faceValue()": "1196",
						"issue(address)": "43105",
						"issueBlock()": "1130",
						"issuePrice()": "1129",
						"issuser()": "1277",
						"maturity()": "1152",
						"redeem()": "infinite"
					}
				},
				"methodIdentifiers": {
					"balances(address)": "27e235e3",
					"discountRate()": "e6c0e6d5",
					"faceValue()": "44fd9caa",
					"issue(address)": "71e928af",
					"issueBlock()": "0199ceaa",
					"issuePrice()": "5c2c2005",
					"issuser()": "d91a5d88",
					"maturity()": "204f83f9",
					"redeem()": "be040fb0"
				}
			},
			"storageLayout": {
				"storage": [
					{
						"astId": 3,
						"contract": "contracts/test.sol:ZeroCouponBond",
						"label": "issuser",
						"offset": 0,
						"slot": "0",
						"type": "t_address"
					},
					{
						"astId": 5,
						"contract": "contracts/test.sol:ZeroCouponBond",
						"label": "faceValue",
						"offset": 0,
						"slot": "1",
						"type": "t_uint256"
					},
					{
						"astId": 7,
						"contract": "contracts/test.sol:ZeroCouponBond",
						"label": "discountRate",
						"offset": 0,
						"slot": "2",
						"type": "t_uint256"
					},
					{
						"astId": 9,
						"contract": "contracts/test.sol:ZeroCouponBond",
						"label": "maturity",
						"offset": 0,
						"slot": "3",
						"type": "t_uint256"
					},
					{
						"astId": 11,
						"contract": "contracts/test.sol:ZeroCouponBond",
						"label": "issuePrice",
						"offset": 0,
						"slot": "4",
						"type": "t_uint256"
					},
					{
						"astId": 13,
						"contract": "contracts/test.sol:ZeroCouponBond",
						"label": "issueBlock",
						"offset": 0,
						"slot": "5",
						"type": "t_uint256"
					},
					{
						"astId": 17,
						"contract": "contracts/test.sol:ZeroCouponBond",
						"label": "balances",
						"offset": 0,
						"slot": "6",
						"type": "t_mapping(t_address,t_uint256)"
					}
				],
				"types": {
					"t_address": {
						"encoding": "inplace",
						"label": "address",
						"numberOfBytes": "20"
					},
					"t_mapping(t_address,t_uint256)": {
						"encoding": "mapping",
						"key": "t_address",
						"label": "mapping(address => uint256)",
						"numberOfBytes": "32",
						"value": "t_uint256"
					},
					"t_uint256": {
						"encoding": "inplace",
						"label": "uint256",
						"numberOfBytes": "32"
					}
				}
			},
			"userdoc": {
				"kind": "user",
				"methods": {},
				"version": 1
			}
		}
	}
}