{
	"contracts/paylock.sol": {
		"Paylock": {
			"abi": [
				{
					"inputs": [
						{
							"internalType": "address",
							"name": "_timeAdd",
							"type": "address"
						}
					],
					"stateMutability": "nonpayable",
					"type": "constructor"
				},
				{
					"inputs": [],
					"name": "collect_1_N",
					"outputs": [],
					"stateMutability": "nonpayable",
					"type": "function"
				},
				{
					"inputs": [],
					"name": "collect_1_Y",
					"outputs": [],
					"stateMutability": "nonpayable",
					"type": "function"
				},
				{
					"inputs": [],
					"name": "collect_2_N",
					"outputs": [],
					"stateMutability": "nonpayable",
					"type": "function"
				},
				{
					"inputs": [],
					"name": "collect_2_Y",
					"outputs": [],
					"stateMutability": "nonpayable",
					"type": "function"
				},
				{
					"inputs": [],
					"name": "signal",
					"outputs": [],
					"stateMutability": "nonpayable",
					"type": "function"
				},
				{
					"inputs": [],
					"name": "tick",
					"outputs": [],
					"stateMutability": "nonpayable",
					"type": "function"
				}
			],
			"devdoc": {
				"methods": {}
			},
			"evm": {
				"assembly": "    /* \"contracts/paylock.sol\":73:1358  contract Paylock {\r... */\n  mstore(0x40, 0x80)\n    /* \"contracts/paylock.sol\":248:249  4 */\n  0x04\n    /* \"contracts/paylock.sol\":233:249  int timeUnit = 4 */\n  0x03\n  sstore\n    /* \"contracts/paylock.sol\":286:428  constructor(address _timeAdd) public {\r... */\n  callvalue\n    /* \"--CODEGEN--\":8:17   */\n  dup1\n    /* \"--CODEGEN--\":5:7   */\n  iszero\n  tag_1\n  jumpi\n    /* \"--CODEGEN--\":30:31   */\n  0x00\n    /* \"--CODEGEN--\":27:28   */\n  dup1\n    /* \"--CODEGEN--\":20:32   */\n  revert\n    /* \"--CODEGEN--\":5:7   */\ntag_1:\n    /* \"contracts/paylock.sol\":286:428  constructor(address _timeAdd) public {\r... */\n  pop\n  mload(0x40)\n  sub(codesize, bytecodeSize)\n  dup1\n  bytecodeSize\n  dup4\n  codecopy\n  dup2\n  dup2\n  add\n  0x40\n  mstore\n    /* \"--CODEGEN--\":13:15   */\n  0x20\n    /* \"--CODEGEN--\":8:11   */\n  dup2\n    /* \"--CODEGEN--\":5:16   */\n  lt\n    /* \"--CODEGEN--\":2:4   */\n  iszero\n  tag_2\n  jumpi\n    /* \"--CODEGEN--\":29:30   */\n  0x00\n    /* \"--CODEGEN--\":26:27   */\n  dup1\n    /* \"--CODEGEN--\":19:31   */\n  revert\n    /* \"--CODEGEN--\":2:4   */\ntag_2:\n    /* \"contracts/paylock.sol\":286:428  constructor(address _timeAdd) public {\r... */\n  dup2\n  add\n  swap1\n  dup1\n  dup1\n  mload\n  swap1\n  0x20\n  add\n  swap1\n  swap3\n  swap2\n  swap1\n  pop\n  pop\n  pop\n    /* \"contracts/paylock.sol\":339:352  State.Working */\n  0x00\n    /* \"contracts/paylock.sol\":334:336  st */\n  0x01\n  0x00\n    /* \"contracts/paylock.sol\":334:352  st = State.Working */\n  0x0100\n  exp\n  dup2\n  sload\n  dup2\n  0xff\n  mul\n  not\n  and\n  swap1\n  dup4\n  0x05\n  dup2\n  gt\n  iszero\n  tag_5\n  jumpi\n  invalid\ntag_5:\n  mul\n  or\n  swap1\n  sstore\n  pop\n    /* \"contracts/paylock.sol\":370:371  0 */\n  0x00\n    /* \"contracts/paylock.sol\":363:367  disc */\n  dup1\n    /* \"contracts/paylock.sol\":363:371  disc = 0 */\n  dup2\n  swap1\n  sstore\n  pop\n    /* \"contracts/paylock.sol\":390:391  0 */\n  0x00\n    /* \"contracts/paylock.sol\":382:387  clock */\n  0x02\n    /* \"contracts/paylock.sol\":382:391  clock = 0 */\n  dup2\n  swap1\n  sstore\n  pop\n    /* \"contracts/paylock.sol\":412:420  _timeAdd */\n  dup1\n    /* \"contracts/paylock.sol\":402:409  timeAdd */\n  0x04\n  0x00\n    /* \"contracts/paylock.sol\":402:420  timeAdd = _timeAdd */\n  0x0100\n  exp\n  dup2\n  sload\n  dup2\n  0xffffffffffffffffffffffffffffffffffffffff\n  mul\n  not\n  and\n  swap1\n  dup4\n  0xffffffffffffffffffffffffffffffffffffffff\n  and\n  mul\n  or\n  swap1\n  sstore\n  pop\n    /* \"contracts/paylock.sol\":286:428  constructor(address _timeAdd) public {\r... */\n  pop\n    /* \"contracts/paylock.sol\":73:1358  contract Paylock {\r... */\n  dataSize(sub_0)\n  dup1\n  dataOffset(sub_0)\n  0x00\n  codecopy\n  0x00\n  return\nstop\n\nsub_0: assembly {\n        /* \"contracts/paylock.sol\":73:1358  contract Paylock {\r... */\n      mstore(0x40, 0x80)\n      callvalue\n        /* \"--CODEGEN--\":8:17   */\n      dup1\n        /* \"--CODEGEN--\":5:7   */\n      iszero\n      tag_1\n      jumpi\n        /* \"--CODEGEN--\":30:31   */\n      0x00\n        /* \"--CODEGEN--\":27:28   */\n      dup1\n        /* \"--CODEGEN--\":20:32   */\n      revert\n        /* \"--CODEGEN--\":5:7   */\n    tag_1:\n        /* \"contracts/paylock.sol\":73:1358  contract Paylock {\r... */\n      pop\n      jumpi(tag_2, lt(calldatasize, 0x04))\n      shr(0xe0, calldataload(0x00))\n      dup1\n      0x3eaf5d9f\n      eq\n      tag_3\n      jumpi\n      dup1\n      0x4c3bc76e\n      eq\n      tag_4\n      jumpi\n      dup1\n      0x640d090b\n      eq\n      tag_5\n      jumpi\n      dup1\n      0x94f5c52d\n      eq\n      tag_6\n      jumpi\n      dup1\n      0x953884de\n      eq\n      tag_7\n      jumpi\n      dup1\n      0xe3ed5166\n      eq\n      tag_8\n      jumpi\n    tag_2:\n      0x00\n      dup1\n      revert\n        /* \"contracts/paylock.sol\":1262:1355  function tick() external {\r... */\n    tag_3:\n      tag_9\n      tag_10\n      jump\t// in\n    tag_9:\n      stop\n        /* \"contracts/paylock.sol\":569:734  function collect_1_Y() public {\r... */\n    tag_4:\n      tag_11\n      tag_12\n      jump\t// in\n    tag_11:\n      stop\n        /* \"contracts/paylock.sol\":436:561  function signal() public {\r... */\n    tag_5:\n      tag_13\n      tag_14\n      jump\t// in\n    tag_13:\n      stop\n        /* \"contracts/paylock.sol\":1088:1254  function collect_2_N() external {\r... */\n    tag_6:\n      tag_15\n      tag_16\n      jump\t// in\n    tag_15:\n      stop\n        /* \"contracts/paylock.sol\":742:908  function collect_1_N() external {\r... */\n    tag_7:\n      tag_17\n      tag_18\n      jump\t// in\n    tag_17:\n      stop\n        /* \"contracts/paylock.sol\":916:1080  function collect_2_Y() external {\r... */\n    tag_8:\n      tag_19\n      tag_20\n      jump\t// in\n    tag_19:\n      stop\n        /* \"contracts/paylock.sol\":1262:1355  function tick() external {\r... */\n    tag_10:\n        /* \"contracts/paylock.sol\":1320:1327  timeAdd */\n      0x04\n      0x00\n      swap1\n      sload\n      swap1\n      0x0100\n      exp\n      swap1\n      div\n      0xffffffffffffffffffffffffffffffffffffffff\n      and\n        /* \"contracts/paylock.sol\":1306:1327  msg.sender == timeAdd */\n      0xffffffffffffffffffffffffffffffffffffffff\n      and\n        /* \"contracts/paylock.sol\":1306:1316  msg.sender */\n      caller\n        /* \"contracts/paylock.sol\":1306:1327  msg.sender == timeAdd */\n      0xffffffffffffffffffffffffffffffffffffffff\n      and\n      eq\n        /* \"contracts/paylock.sol\":1298:1328  require(msg.sender == timeAdd) */\n      tag_22\n      jumpi\n      0x00\n      dup1\n      revert\n    tag_22:\n        /* \"contracts/paylock.sol\":1339:1344  clock */\n      0x02\n      0x00\n        /* \"contracts/paylock.sol\":1339:1347  clock ++ */\n      dup2\n      sload\n      dup1\n      swap3\n      swap2\n      swap1\n      0x01\n      add\n      swap2\n      swap1\n      pop\n      sstore\n      pop\n        /* \"contracts/paylock.sol\":1262:1355  function tick() external {\r... */\n      jump\t// out\n        /* \"contracts/paylock.sol\":569:734  function collect_1_Y() public {\r... */\n    tag_12:\n        /* \"contracts/paylock.sol\":625:640  State.Completed */\n      0x01\n        /* \"contracts/paylock.sol\":619:640  st == State.Completed */\n      0x05\n      dup2\n      gt\n      iszero\n      tag_24\n      jumpi\n      invalid\n    tag_24:\n        /* \"contracts/paylock.sol\":619:621  st */\n      0x01\n      0x00\n      swap1\n      sload\n      swap1\n      0x0100\n      exp\n      swap1\n      div\n      0xff\n      and\n        /* \"contracts/paylock.sol\":619:640  st == State.Completed */\n      0x05\n      dup2\n      gt\n      iszero\n      tag_25\n      jumpi\n      invalid\n    tag_25:\n      eq\n        /* \"contracts/paylock.sol\":610:642  require( st == State.Completed ) */\n      tag_26\n      jumpi\n      0x00\n      dup1\n      revert\n    tag_26:\n        /* \"contracts/paylock.sol\":669:677  timeUnit */\n      sload(0x03)\n        /* \"contracts/paylock.sol\":661:666  clock */\n      sload(0x02)\n        /* \"contracts/paylock.sol\":661:677  clock < timeUnit */\n      slt\n        /* \"contracts/paylock.sol\":653:678  require(clock < timeUnit) */\n      tag_27\n      jumpi\n      0x00\n      dup1\n      revert\n    tag_27:\n        /* \"contracts/paylock.sol\":694:706  State.Done_1 */\n      0x02\n        /* \"contracts/paylock.sol\":689:691  st */\n      0x01\n      0x00\n        /* \"contracts/paylock.sol\":689:706  st = State.Done_1 */\n      0x0100\n      exp\n      dup2\n      sload\n      dup2\n      0xff\n      mul\n      not\n      and\n      swap1\n      dup4\n      0x05\n      dup2\n      gt\n      iszero\n      tag_28\n      jumpi\n      invalid\n    tag_28:\n      mul\n      or\n      swap1\n      sstore\n      pop\n        /* \"contracts/paylock.sol\":724:726  10 */\n      0x0a\n        /* \"contracts/paylock.sol\":717:721  disc */\n      0x00\n        /* \"contracts/paylock.sol\":717:726  disc = 10 */\n      dup2\n      swap1\n      sstore\n      pop\n        /* \"contracts/paylock.sol\":569:734  function collect_1_Y() public {\r... */\n      jump\t// out\n        /* \"contracts/paylock.sol\":436:561  function signal() public {\r... */\n    tag_14:\n        /* \"contracts/paylock.sol\":487:500  State.Working */\n      0x00\n        /* \"contracts/paylock.sol\":481:500  st == State.Working */\n      0x05\n      dup2\n      gt\n      iszero\n      tag_30\n      jumpi\n      invalid\n    tag_30:\n        /* \"contracts/paylock.sol\":481:483  st */\n      0x01\n      0x00\n      swap1\n      sload\n      swap1\n      0x0100\n      exp\n      swap1\n      div\n      0xff\n      and\n        /* \"contracts/paylock.sol\":481:500  st == State.Working */\n      0x05\n      dup2\n      gt\n      iszero\n      tag_31\n      jumpi\n      invalid\n    tag_31:\n      eq\n        /* \"contracts/paylock.sol\":472:502  require( st == State.Working ) */\n      tag_32\n      jumpi\n      0x00\n      dup1\n      revert\n    tag_32:\n        /* \"contracts/paylock.sol\":518:533  State.Completed */\n      0x01\n        /* \"contracts/paylock.sol\":513:515  st */\n      dup1\n      0x00\n        /* \"contracts/paylock.sol\":513:533  st = State.Completed */\n      0x0100\n      exp\n      dup2\n      sload\n      dup2\n      0xff\n      mul\n      not\n      and\n      swap1\n      dup4\n      0x05\n      dup2\n      gt\n      iszero\n      tag_33\n      jumpi\n      invalid\n    tag_33:\n      mul\n      or\n      swap1\n      sstore\n      pop\n        /* \"contracts/paylock.sol\":551:553  10 */\n      0x0a\n        /* \"contracts/paylock.sol\":544:548  disc */\n      0x00\n        /* \"contracts/paylock.sol\":544:553  disc = 10 */\n      dup2\n      swap1\n      sstore\n      pop\n        /* \"contracts/paylock.sol\":436:561  function signal() public {\r... */\n      jump\t// out\n        /* \"contracts/paylock.sol\":1088:1254  function collect_2_N() external {\r... */\n    tag_16:\n        /* \"contracts/paylock.sol\":1146:1157  State.Delay */\n      0x03\n        /* \"contracts/paylock.sol\":1140:1157  st == State.Delay */\n      0x05\n      dup2\n      gt\n      iszero\n      tag_35\n      jumpi\n      invalid\n    tag_35:\n        /* \"contracts/paylock.sol\":1140:1142  st */\n      0x01\n      0x00\n      swap1\n      sload\n      swap1\n      0x0100\n      exp\n      swap1\n      div\n      0xff\n      and\n        /* \"contracts/paylock.sol\":1140:1157  st == State.Delay */\n      0x05\n      dup2\n      gt\n      iszero\n      tag_36\n      jumpi\n      invalid\n    tag_36:\n      eq\n        /* \"contracts/paylock.sol\":1131:1159  require( st == State.Delay ) */\n      tag_37\n      jumpi\n      0x00\n      dup1\n      revert\n    tag_37:\n        /* \"contracts/paylock.sol\":1196:1197  2 */\n      0x02\n        /* \"contracts/paylock.sol\":1187:1195  timeUnit */\n      sload(0x03)\n        /* \"contracts/paylock.sol\":1187:1197  timeUnit*2 */\n      mul\n        /* \"contracts/paylock.sol\":1178:1183  clock */\n      sload(0x02)\n        /* \"contracts/paylock.sol\":1178:1197  clock >= timeUnit*2 */\n      slt\n      iszero\n        /* \"contracts/paylock.sol\":1170:1198  require(clock >= timeUnit*2) */\n      tag_38\n      jumpi\n      0x00\n      dup1\n      revert\n    tag_38:\n        /* \"contracts/paylock.sol\":1214:1227  State.Forfeit */\n      0x05\n        /* \"contracts/paylock.sol\":1209:1211  st */\n      0x01\n      0x00\n        /* \"contracts/paylock.sol\":1209:1227  st = State.Forfeit */\n      0x0100\n      exp\n      dup2\n      sload\n      dup2\n      0xff\n      mul\n      not\n      and\n      swap1\n      dup4\n      0x05\n      dup2\n      gt\n      iszero\n      tag_39\n      jumpi\n      invalid\n    tag_39:\n      mul\n      or\n      swap1\n      sstore\n      pop\n        /* \"contracts/paylock.sol\":1245:1246  0 */\n      0x00\n        /* \"contracts/paylock.sol\":1238:1242  disc */\n      dup1\n        /* \"contracts/paylock.sol\":1238:1246  disc = 0 */\n      dup2\n      swap1\n      sstore\n      pop\n        /* \"contracts/paylock.sol\":1088:1254  function collect_2_N() external {\r... */\n      jump\t// out\n        /* \"contracts/paylock.sol\":742:908  function collect_1_N() external {\r... */\n    tag_18:\n        /* \"contracts/paylock.sol\":800:815  State.Completed */\n      0x01\n        /* \"contracts/paylock.sol\":794:815  st == State.Completed */\n      0x05\n      dup2\n      gt\n      iszero\n      tag_41\n      jumpi\n      invalid\n    tag_41:\n        /* \"contracts/paylock.sol\":794:796  st */\n      0x01\n      0x00\n      swap1\n      sload\n      swap1\n      0x0100\n      exp\n      swap1\n      div\n      0xff\n      and\n        /* \"contracts/paylock.sol\":794:815  st == State.Completed */\n      0x05\n      dup2\n      gt\n      iszero\n      tag_42\n      jumpi\n      invalid\n    tag_42:\n      eq\n        /* \"contracts/paylock.sol\":785:817  require( st == State.Completed ) */\n      tag_43\n      jumpi\n      0x00\n      dup1\n      revert\n    tag_43:\n        /* \"contracts/paylock.sol\":845:853  timeUnit */\n      sload(0x03)\n        /* \"contracts/paylock.sol\":836:841  clock */\n      sload(0x02)\n        /* \"contracts/paylock.sol\":836:853  clock >= timeUnit */\n      slt\n      iszero\n        /* \"contracts/paylock.sol\":828:854  require(clock >= timeUnit) */\n      tag_44\n      jumpi\n      0x00\n      dup1\n      revert\n    tag_44:\n        /* \"contracts/paylock.sol\":870:881  State.Delay */\n      0x03\n        /* \"contracts/paylock.sol\":865:867  st */\n      0x01\n      0x00\n        /* \"contracts/paylock.sol\":865:881  st = State.Delay */\n      0x0100\n      exp\n      dup2\n      sload\n      dup2\n      0xff\n      mul\n      not\n      and\n      swap1\n      dup4\n      0x05\n      dup2\n      gt\n      iszero\n      tag_45\n      jumpi\n      invalid\n    tag_45:\n      mul\n      or\n      swap1\n      sstore\n      pop\n        /* \"contracts/paylock.sol\":899:900  5 */\n      0x05\n        /* \"contracts/paylock.sol\":892:896  disc */\n      0x00\n        /* \"contracts/paylock.sol\":892:900  disc = 5 */\n      dup2\n      swap1\n      sstore\n      pop\n        /* \"contracts/paylock.sol\":742:908  function collect_1_N() external {\r... */\n      jump\t// out\n        /* \"contracts/paylock.sol\":916:1080  function collect_2_Y() external {\r... */\n    tag_20:\n        /* \"contracts/paylock.sol\":974:985  State.Delay */\n      0x03\n        /* \"contracts/paylock.sol\":968:985  st == State.Delay */\n      0x05\n      dup2\n      gt\n      iszero\n      tag_47\n      jumpi\n      invalid\n    tag_47:\n        /* \"contracts/paylock.sol\":968:970  st */\n      0x01\n      0x00\n      swap1\n      sload\n      swap1\n      0x0100\n      exp\n      swap1\n      div\n      0xff\n      and\n        /* \"contracts/paylock.sol\":968:985  st == State.Delay */\n      0x05\n      dup2\n      gt\n      iszero\n      tag_48\n      jumpi\n      invalid\n    tag_48:\n      eq\n        /* \"contracts/paylock.sol\":959:987  require( st == State.Delay ) */\n      tag_49\n      jumpi\n      0x00\n      dup1\n      revert\n    tag_49:\n        /* \"contracts/paylock.sol\":1023:1024  2 */\n      0x02\n        /* \"contracts/paylock.sol\":1014:1022  timeUnit */\n      sload(0x03)\n        /* \"contracts/paylock.sol\":1014:1024  timeUnit*2 */\n      mul\n        /* \"contracts/paylock.sol\":1006:1011  clock */\n      sload(0x02)\n        /* \"contracts/paylock.sol\":1006:1024  clock < timeUnit*2 */\n      slt\n        /* \"contracts/paylock.sol\":998:1025  require(clock < timeUnit*2) */\n      tag_50\n      jumpi\n      0x00\n      dup1\n      revert\n    tag_50:\n        /* \"contracts/paylock.sol\":1041:1053  State.Done_2 */\n      0x04\n        /* \"contracts/paylock.sol\":1036:1038  st */\n      0x01\n      0x00\n        /* \"contracts/paylock.sol\":1036:1053  st = State.Done_2 */\n      0x0100\n      exp\n      dup2\n      sload\n      dup2\n      0xff\n      mul\n      not\n      and\n      swap1\n      dup4\n      0x05\n      dup2\n      gt\n      iszero\n      tag_51\n      jumpi\n      invalid\n    tag_51:\n      mul\n      or\n      swap1\n      sstore\n      pop\n        /* \"contracts/paylock.sol\":1071:1072  5 */\n      0x05\n        /* \"contracts/paylock.sol\":1064:1068  disc */\n      0x00\n        /* \"contracts/paylock.sol\":1064:1072  disc = 5 */\n      dup2\n      swap1\n      sstore\n      pop\n        /* \"contracts/paylock.sol\":916:1080  function collect_2_Y() external {\r... */\n      jump\t// out\n\n    auxdata: 0xa26469706673582212207be22aa4500f361e3aa7772340d409f898e483612a5b52c7d363901726b760bc64736f6c63430006000033\n}\n",
				"bytecode": {
					"linkReferences": {},
					"object": "6080604052600460035534801561001557600080fd5b5060405161043a38038061043a8339818101604052602081101561003857600080fd5b81019080805190602001909291905050506000600160006101000a81548160ff0219169083600581111561006857fe5b021790555060008081905550600060028190555080600460006101000a81548173ffffffffffffffffffffffffffffffffffffffff021916908373ffffffffffffffffffffffffffffffffffffffff1602179055505061036d806100cd6000396000f3fe608060405234801561001057600080fd5b50600436106100625760003560e01c80633eaf5d9f146100675780634c3bc76e14610071578063640d090b1461007b57806394f5c52d14610085578063953884de1461008f578063e3ed516614610099575b600080fd5b61006f6100a3565b005b610079610111565b005b610083610181565b005b61008d6101e0565b005b610097610253565b005b6100a16102c4565b005b600460009054906101000a900473ffffffffffffffffffffffffffffffffffffffff1673ffffffffffffffffffffffffffffffffffffffff163373ffffffffffffffffffffffffffffffffffffffff16146100fd57600080fd5b600260008154809291906001019190505550565b6001600581111561011e57fe5b600160009054906101000a900460ff16600581111561013957fe5b1461014357600080fd5b6003546002541261015357600080fd5b6002600160006101000a81548160ff0219169083600581111561017257fe5b0217905550600a600081905550565b6000600581111561018e57fe5b600160009054906101000a900460ff1660058111156101a957fe5b146101b357600080fd5b60018060006101000a81548160ff021916908360058111156101d157fe5b0217905550600a600081905550565b600360058111156101ed57fe5b600160009054906101000a900460ff16600581111561020857fe5b1461021257600080fd5b600260035402600254121561022657600080fd5b6005600160006101000a81548160ff0219169083600581111561024557fe5b021790555060008081905550565b6001600581111561026057fe5b600160009054906101000a900460ff16600581111561027b57fe5b1461028557600080fd5b600354600254121561029657600080fd5b6003600160006101000a81548160ff021916908360058111156102b557fe5b02179055506005600081905550565b600360058111156102d157fe5b600160009054906101000a900460ff1660058111156102ec57fe5b146102f657600080fd5b6002600354026002541261030957600080fd5b6004600160006101000a81548160ff0219169083600581111561032857fe5b0217905550600560008190555056fea26469706673582212207be22aa4500f361e3aa7772340d409f898e483612a5b52c7d363901726b760bc64736f6c63430006000033",
					"opcodes": "PUSH1 0x80 PUSH1 0x40 MSTORE PUSH1 0x4 PUSH1 0x3 SSTORE CALLVALUE DUP1 ISZERO PUSH2 0x15 JUMPI PUSH1 0x0 DUP1 REVERT JUMPDEST POP PUSH1 0x40 MLOAD PUSH2 0x43A CODESIZE SUB DUP1 PUSH2 0x43A DUP4 CODECOPY DUP2 DUP2 ADD PUSH1 0x40 MSTORE PUSH1 0x20 DUP2 LT ISZERO PUSH2 0x38 JUMPI PUSH1 0x0 DUP1 REVERT JUMPDEST DUP2 ADD SWAP1 DUP1 DUP1 MLOAD SWAP1 PUSH1 0x20 ADD SWAP1 SWAP3 SWAP2 SWAP1 POP POP POP PUSH1 0x0 PUSH1 0x1 PUSH1 0x0 PUSH2 0x100 EXP DUP2 SLOAD DUP2 PUSH1 0xFF MUL NOT AND SWAP1 DUP4 PUSH1 0x5 DUP2 GT ISZERO PUSH2 0x68 JUMPI INVALID JUMPDEST MUL OR SWAP1 SSTORE POP PUSH1 0x0 DUP1 DUP2 SWAP1 SSTORE POP PUSH1 0x0 PUSH1 0x2 DUP2 SWAP1 SSTORE POP DUP1 PUSH1 0x4 PUSH1 0x0 PUSH2 0x100 EXP DUP2 SLOAD DUP2 PUSH20 0xFFFFFFFFFFFFFFFFFFFFFFFFFFFFFFFFFFFFFFFF MUL NOT AND SWAP1 DUP4 PUSH20 0xFFFFFFFFFFFFFFFFFFFFFFFFFFFFFFFFFFFFFFFF AND MUL OR SWAP1 SSTORE POP POP PUSH2 0x36D DUP1 PUSH2 0xCD PUSH1 0x0 CODECOPY PUSH1 0x0 RETURN INVALID PUSH1 0x80 PUSH1 0x40 MSTORE CALLVALUE DUP1 ISZERO PUSH2 0x10 JUMPI PUSH1 0x0 DUP1 REVERT JUMPDEST POP PUSH1 0x4 CALLDATASIZE LT PUSH2 0x62 JUMPI PUSH1 0x0 CALLDATALOAD PUSH1 0xE0 SHR DUP1 PUSH4 0x3EAF5D9F EQ PUSH2 0x67 JUMPI DUP1 PUSH4 0x4C3BC76E EQ PUSH2 0x71 JUMPI DUP1 PUSH4 0x640D090B EQ PUSH2 0x7B JUMPI DUP1 PUSH4 0x94F5C52D EQ PUSH2 0x85 JUMPI DUP1 PUSH4 0x953884DE EQ PUSH2 0x8F JUMPI DUP1 PUSH4 0xE3ED5166 EQ PUSH2 0x99 JUMPI JUMPDEST PUSH1 0x0 DUP1 REVERT JUMPDEST PUSH2 0x6F PUSH2 0xA3 JUMP JUMPDEST STOP JUMPDEST PUSH2 0x79 PUSH2 0x111 JUMP JUMPDEST STOP JUMPDEST PUSH2 0x83 PUSH2 0x181 JUMP JUMPDEST STOP JUMPDEST PUSH2 0x8D PUSH2 0x1E0 JUMP JUMPDEST STOP JUMPDEST PUSH2 0x97 PUSH2 0x253 JUMP JUMPDEST STOP JUMPDEST PUSH2 0xA1 PUSH2 0x2C4 JUMP JUMPDEST STOP JUMPDEST PUSH1 0x4 PUSH1 0x0 SWAP1 SLOAD SWAP1 PUSH2 0x100 EXP SWAP1 DIV PUSH20 0xFFFFFFFFFFFFFFFFFFFFFFFFFFFFFFFFFFFFFFFF AND PUSH20 0xFFFFFFFFFFFFFFFFFFFFFFFFFFFFFFFFFFFFFFFF AND CALLER PUSH20 0xFFFFFFFFFFFFFFFFFFFFFFFFFFFFFFFFFFFFFFFF AND EQ PUSH2 0xFD JUMPI PUSH1 0x0 DUP1 REVERT JUMPDEST PUSH1 0x2 PUSH1 0x0 DUP2 SLOAD DUP1 SWAP3 SWAP2 SWAP1 PUSH1 0x1 ADD SWAP2 SWAP1 POP SSTORE POP JUMP JUMPDEST PUSH1 0x1 PUSH1 0x5 DUP2 GT ISZERO PUSH2 0x11E JUMPI INVALID JUMPDEST PUSH1 0x1 PUSH1 0x0 SWAP1 SLOAD SWAP1 PUSH2 0x100 EXP SWAP1 DIV PUSH1 0xFF AND PUSH1 0x5 DUP2 GT ISZERO PUSH2 0x139 JUMPI INVALID JUMPDEST EQ PUSH2 0x143 JUMPI PUSH1 0x0 DUP1 REVERT JUMPDEST PUSH1 0x3 SLOAD PUSH1 0x2 SLOAD SLT PUSH2 0x153 JUMPI PUSH1 0x0 DUP1 REVERT JUMPDEST PUSH1 0x2 PUSH1 0x1 PUSH1 0x0 PUSH2 0x100 EXP DUP2 SLOAD DUP2 PUSH1 0xFF MUL NOT AND SWAP1 DUP4 PUSH1 0x5 DUP2 GT ISZERO PUSH2 0x172 JUMPI INVALID JUMPDEST MUL OR SWAP1 SSTORE POP PUSH1 0xA PUSH1 0x0 DUP2 SWAP1 SSTORE POP JUMP JUMPDEST PUSH1 0x0 PUSH1 0x5 DUP2 GT ISZERO PUSH2 0x18E JUMPI INVALID JUMPDEST PUSH1 0x1 PUSH1 0x0 SWAP1 SLOAD SWAP1 PUSH2 0x100 EXP SWAP1 DIV PUSH1 0xFF AND PUSH1 0x5 DUP2 GT ISZERO PUSH2 0x1A9 JUMPI INVALID JUMPDEST EQ PUSH2 0x1B3 JUMPI PUSH1 0x0 DUP1 REVERT JUMPDEST PUSH1 0x1 DUP1 PUSH1 0x0 PUSH2 0x100 EXP DUP2 SLOAD DUP2 PUSH1 0xFF MUL NOT AND SWAP1 DUP4 PUSH1 0x5 DUP2 GT ISZERO PUSH2 0x1D1 JUMPI INVALID JUMPDEST MUL OR SWAP1 SSTORE POP PUSH1 0xA PUSH1 0x0 DUP2 SWAP1 SSTORE POP JUMP JUMPDEST PUSH1 0x3 PUSH1 0x5 DUP2 GT ISZERO PUSH2 0x1ED JUMPI INVALID JUMPDEST PUSH1 0x1 PUSH1 0x0 SWAP1 SLOAD SWAP1 PUSH2 0x100 EXP SWAP1 DIV PUSH1 0xFF AND PUSH1 0x5 DUP2 GT ISZERO PUSH2 0x208 JUMPI INVALID JUMPDEST EQ PUSH2 0x212 JUMPI PUSH1 0x0 DUP1 REVERT JUMPDEST PUSH1 0x2 PUSH1 0x3 SLOAD MUL PUSH1 0x2 SLOAD SLT ISZERO PUSH2 0x226 JUMPI PUSH1 0x0 DUP1 REVERT JUMPDEST PUSH1 0x5 PUSH1 0x1 PUSH1 0x0 PUSH2 0x100 EXP DUP2 SLOAD DUP2 PUSH1 0xFF MUL NOT AND SWAP1 DUP4 PUSH1 0x5 DUP2 GT ISZERO PUSH2 0x245 JUMPI INVALID JUMPDEST MUL OR SWAP1 SSTORE POP PUSH1 0x0 DUP1 DUP2 SWAP1 SSTORE POP JUMP JUMPDEST PUSH1 0x1 PUSH1 0x5 DUP2 GT ISZERO PUSH2 0x260 JUMPI INVALID JUMPDEST PUSH1 0x1 PUSH1 0x0 SWAP1 SLOAD SWAP1 PUSH2 0x100 EXP SWAP1 DIV PUSH1 0xFF AND PUSH1 0x5 DUP2 GT ISZERO PUSH2 0x27B JUMPI INVALID JUMPDEST EQ PUSH2 0x285 JUMPI PUSH1 0x0 DUP1 REVERT JUMPDEST PUSH1 0x3 SLOAD PUSH1 0x2 SLOAD SLT ISZERO PUSH2 0x296 JUMPI PUSH1 0x0 DUP1 REVERT JUMPDEST PUSH1 0x3 PUSH1 0x1 PUSH1 0x0 PUSH2 0x100 EXP DUP2 SLOAD DUP2 PUSH1 0xFF MUL NOT AND SWAP1 DUP4 PUSH1 0x5 DUP2 GT ISZERO PUSH2 0x2B5 JUMPI INVALID JUMPDEST MUL OR SWAP1 SSTORE POP PUSH1 0x5 PUSH1 0x0 DUP2 SWAP1 SSTORE POP JUMP JUMPDEST PUSH1 0x3 PUSH1 0x5 DUP2 GT ISZERO PUSH2 0x2D1 JUMPI INVALID JUMPDEST PUSH1 0x1 PUSH1 0x0 SWAP1 SLOAD SWAP1 PUSH2 0x100 EXP SWAP1 DIV PUSH1 0xFF AND PUSH1 0x5 DUP2 GT ISZERO PUSH2 0x2EC JUMPI INVALID JUMPDEST EQ PUSH2 0x2F6 JUMPI PUSH1 0x0 DUP1 REVERT JUMPDEST PUSH1 0x2 PUSH1 0x3 SLOAD MUL PUSH1 0x2 SLOAD SLT PUSH2 0x309 JUMPI PUSH1 0x0 DUP1 REVERT JUMPDEST PUSH1 0x4 PUSH1 0x1 PUSH1 0x0 PUSH2 0x100 EXP DUP2 SLOAD DUP2 PUSH1 0xFF MUL NOT AND SWAP1 DUP4 PUSH1 0x5 DUP2 GT ISZERO PUSH2 0x328 JUMPI INVALID JUMPDEST MUL OR SWAP1 SSTORE POP PUSH1 0x5 PUSH1 0x0 DUP2 SWAP1 SSTORE POP JUMP INVALID LOG2 PUSH5 0x6970667358 0x22 SLT KECCAK256 PUSH28 0xE22AA4500F361E3AA7772340D409F898E483612A5B52C7D363901726 0xB7 PUSH1 0xBC PUSH5 0x736F6C6343 STOP MOD STOP STOP CALLER "
				},
				"gasEstimates": {
					"creation": {
						"codeDepositCost": "175400",
						"executionCost": "infinite",
						"totalCost": "infinite"
					},
					"external": {
						"collect_1_N()": "43648",
						"collect_1_Y()": "43579",
						"collect_2_N()": "28634",
						"collect_2_Y()": "43675",
						"signal()": "41978",
						"tick()": "21829"
					}
				},
				"methodIdentifiers": {
					"collect_1_N()": "953884de",
					"collect_1_Y()": "4c3bc76e",
					"collect_2_N()": "94f5c52d",
					"collect_2_Y()": "e3ed5166",
					"signal()": "640d090b",
					"tick()": "3eaf5d9f"
				}
			},
			"storageLayout": {
				"storage": [
					{
						"astId": 10,
						"contract": "contracts/paylock.sol:Paylock",
						"label": "disc",
						"offset": 0,
						"slot": "0",
						"type": "t_int256"
					},
					{
						"astId": 12,
						"contract": "contracts/paylock.sol:Paylock",
						"label": "st",
						"offset": 0,
						"slot": "1",
						"type": "t_enum(State)8"
					},
					{
						"astId": 14,
						"contract": "contracts/paylock.sol:Paylock",
						"label": "clock",
						"offset": 0,
						"slot": "2",
						"type": "t_int256"
					},
					{
						"astId": 17,
						"contract": "contracts/paylock.sol:Paylock",
						"label": "timeUnit",
						"offset": 0,
						"slot": "3",
						"type": "t_int256"
					},
					{
						"astId": 19,
						"contract": "contracts/paylock.sol:Paylock",
						"label": "timeAdd",
						"offset": 0,
						"slot": "4",
						"type": "t_address"
					}
				],
				"types": {
					"t_address": {
						"encoding": "inplace",
						"label": "address",
						"numberOfBytes": "20"
					},
					"t_enum(State)8": {
						"encoding": "inplace",
						"label": "enum Paylock.State",
						"numberOfBytes": "1"
					},
					"t_int256": {
						"encoding": "inplace",
						"label": "int256",
						"numberOfBytes": "32"
					}
				}
			},
			"userdoc": {
				"methods": {}
			}
		}
	}
}