{
	"contracts/paylock.sol": {
		"Rental": {
			"abi": [
				{
					"inputs": [],
					"stateMutability": "nonpayable",
					"type": "constructor"
				},
				{
					"stateMutability": "payable",
					"type": "fallback"
				},
				{
					"inputs": [],
					"name": "rent_out_resource",
					"outputs": [],
					"stateMutability": "payable",
					"type": "function"
				},
				{
					"inputs": [],
					"name": "retrieve_resource",
					"outputs": [],
					"stateMutability": "nonpayable",
					"type": "function"
				},
				{
					"stateMutability": "payable",
					"type": "receive"
				}
			],
			"devdoc": {
				"methods": {}
			},
			"evm": {
				"assembly": "    /* \"contracts/paylock.sol\":2417:3432  contract Rental {\r... */\n  mstore(0x40, 0x80)\n    /* \"contracts/paylock.sol\":2514:2519  1 wei */\n  0x01\n    /* \"contracts/paylock.sol\":2499:2519  uint deposit = 1 wei */\n  dup1\n  sstore\n    /* \"contracts/paylock.sol\":2565:2630  constructor() public {\r... */\n  callvalue\n    /* \"--CODEGEN--\":8:17   */\n  dup1\n    /* \"--CODEGEN--\":5:7   */\n  iszero\n  tag_1\n  jumpi\n    /* \"--CODEGEN--\":30:31   */\n  0x00\n    /* \"--CODEGEN--\":27:28   */\n  dup1\n    /* \"--CODEGEN--\":20:32   */\n  revert\n    /* \"--CODEGEN--\":5:7   */\ntag_1:\n    /* \"contracts/paylock.sol\":2565:2630  constructor() public {\r... */\n  pop\n    /* \"contracts/paylock.sol\":2618:2622  true */\n  0x01\n    /* \"contracts/paylock.sol\":2597:2615  resource_available */\n  0x00\n  0x14\n    /* \"contracts/paylock.sol\":2597:2622  resource_available = true */\n  0x0100\n  exp\n  dup2\n  sload\n  dup2\n  0xff\n  mul\n  not\n  and\n  swap1\n  dup4\n  iszero\n  iszero\n  mul\n  or\n  swap1\n  sstore\n  pop\n    /* \"contracts/paylock.sol\":2417:3432  contract Rental {\r... */\n  dataSize(sub_0)\n  dup1\n  dataOffset(sub_0)\n  0x00\n  codecopy\n  0x00\n  return\nstop\n\nsub_0: assembly {\n        /* \"contracts/paylock.sol\":2417:3432  contract Rental {\r... */\n      mstore(0x40, 0x80)\n      jumpi(tag_1, lt(calldatasize, 0x04))\n      shr(0xe0, calldataload(0x00))\n      dup1\n      0x3695dd4b\n      eq\n      tag_3\n      jumpi\n      dup1\n      0xbb150fbf\n      eq\n      tag_4\n      jumpi\n      jump(tag_2)\n    tag_1:\n      jumpi(tag_2, calldatasize)\n      stop\n    tag_2:\n      stop\n        /* \"contracts/paylock.sol\":2905:3248  function retrieve_resource() external {\r... */\n    tag_3:\n      callvalue\n        /* \"--CODEGEN--\":8:17   */\n      dup1\n        /* \"--CODEGEN--\":5:7   */\n      iszero\n      tag_9\n      jumpi\n        /* \"--CODEGEN--\":30:31   */\n      0x00\n        /* \"--CODEGEN--\":27:28   */\n      dup1\n        /* \"--CODEGEN--\":20:32   */\n      revert\n        /* \"--CODEGEN--\":5:7   */\n    tag_9:\n        /* \"contracts/paylock.sol\":2905:3248  function retrieve_resource() external {\r... */\n      pop\n      tag_10\n      tag_11\n      jump\t// in\n    tag_10:\n      stop\n        /* \"contracts/paylock.sol\":2642:2897  function rent_out_resource() external payable {  \r... */\n    tag_4:\n      tag_12\n      tag_13\n      jump\t// in\n    tag_12:\n      stop\n        /* \"contracts/paylock.sol\":2905:3248  function retrieve_resource() external {\r... */\n    tag_11:\n        /* \"contracts/paylock.sol\":2984:2989  false */\n      0x00\n        /* \"contracts/paylock.sol\":2962:2989  resource_available == false */\n      iszero\n      iszero\n        /* \"contracts/paylock.sol\":2962:2980  resource_available */\n      0x00\n      0x14\n      swap1\n      sload\n      swap1\n      0x0100\n      exp\n      swap1\n      div\n      0xff\n      and\n        /* \"contracts/paylock.sol\":2962:2989  resource_available == false */\n      iszero\n      iszero\n      eq\n        /* \"contracts/paylock.sol\":2962:3021  resource_available == false && msg.sender == resource_owner */\n      dup1\n      iszero\n      tag_15\n      jumpi\n      pop\n        /* \"contracts/paylock.sol\":3007:3021  resource_owner */\n      0x00\n      dup1\n      swap1\n      sload\n      swap1\n      0x0100\n      exp\n      swap1\n      div\n      0xffffffffffffffffffffffffffffffffffffffff\n      and\n        /* \"contracts/paylock.sol\":2993:3021  msg.sender == resource_owner */\n      0xffffffffffffffffffffffffffffffffffffffff\n      and\n        /* \"contracts/paylock.sol\":2993:3003  msg.sender */\n      caller\n        /* \"contracts/paylock.sol\":2993:3021  msg.sender == resource_owner */\n      0xffffffffffffffffffffffffffffffffffffffff\n      and\n      eq\n        /* \"contracts/paylock.sol\":2962:3021  resource_available == false && msg.sender == resource_owner */\n    tag_15:\n        /* \"contracts/paylock.sol\":2954:3022  require(resource_available == false && msg.sender == resource_owner) */\n      tag_16\n      jumpi\n      0x00\n      dup1\n      revert\n    tag_16:\n        /* \"contracts/paylock.sol\":3236:3240  true */\n      0x01\n        /* \"contracts/paylock.sol\":3215:3233  resource_available */\n      0x00\n      0x14\n        /* \"contracts/paylock.sol\":3215:3240  resource_available = true */\n      0x0100\n      exp\n      dup2\n      sload\n      dup2\n      0xff\n      mul\n      not\n      and\n      swap1\n      dup4\n      iszero\n      iszero\n      mul\n      or\n      swap1\n      sstore\n      pop\n        /* \"contracts/paylock.sol\":2905:3248  function retrieve_resource() external {\r... */\n      jump\t// out\n        /* \"contracts/paylock.sol\":2642:2897  function rent_out_resource() external payable {  \r... */\n    tag_13:\n        /* \"contracts/paylock.sol\":2731:2735  true */\n      0x01\n        /* \"contracts/paylock.sol\":2709:2735  resource_available == true */\n      iszero\n      iszero\n        /* \"contracts/paylock.sol\":2709:2727  resource_available */\n      0x00\n      0x14\n      swap1\n      sload\n      swap1\n      0x0100\n      exp\n      swap1\n      div\n      0xff\n      and\n        /* \"contracts/paylock.sol\":2709:2735  resource_available == true */\n      iszero\n      iszero\n      eq\n        /* \"contracts/paylock.sol\":2701:2736  require(resource_available == true) */\n      tag_18\n      jumpi\n      0x00\n      dup1\n      revert\n    tag_18:\n        /* \"contracts/paylock.sol\":2805:2814  msg.value */\n      callvalue\n        /* \"contracts/paylock.sol\":2781:2790  balanceOf */\n      0x02\n        /* \"contracts/paylock.sol\":2781:2802  balanceOf[msg.sender] */\n      0x00\n        /* \"contracts/paylock.sol\":2791:2801  msg.sender */\n      caller\n        /* \"contracts/paylock.sol\":2781:2802  balanceOf[msg.sender] */\n      0xffffffffffffffffffffffffffffffffffffffff\n      and\n      0xffffffffffffffffffffffffffffffffffffffff\n      and\n      dup2\n      mstore\n      0x20\n      add\n      swap1\n      dup2\n      mstore\n      0x20\n      add\n      0x00\n      keccak256\n        /* \"contracts/paylock.sol\":2781:2814  balanceOf[msg.sender] = msg.value */\n      dup2\n      swap1\n      sstore\n      pop\n        /* \"contracts/paylock.sol\":2842:2852  msg.sender */\n      caller\n        /* \"contracts/paylock.sol\":2825:2839  resource_owner */\n      0x00\n      dup1\n        /* \"contracts/paylock.sol\":2825:2852  resource_owner = msg.sender */\n      0x0100\n      exp\n      dup2\n      sload\n      dup2\n      0xffffffffffffffffffffffffffffffffffffffff\n      mul\n      not\n      and\n      swap1\n      dup4\n      0xffffffffffffffffffffffffffffffffffffffff\n      and\n      mul\n      or\n      swap1\n      sstore\n      pop\n        /* \"contracts/paylock.sol\":2884:2889  false */\n      0x00\n        /* \"contracts/paylock.sol\":2863:2881  resource_available */\n      dup1\n      0x14\n        /* \"contracts/paylock.sol\":2863:2889  resource_available = false */\n      0x0100\n      exp\n      dup2\n      sload\n      dup2\n      0xff\n      mul\n      not\n      and\n      swap1\n      dup4\n      iszero\n      iszero\n      mul\n      or\n      swap1\n      sstore\n      pop\n        /* \"contracts/paylock.sol\":2642:2897  function rent_out_resource() external payable {  \r... */\n      jump\t// out\n\n    auxdata: 0xa264697066735822122041bebaddf6004ccdf771b3b43f1b397e2a95933f7bbfebf573c829b16c6c706664736f6c63430006000033\n}\n",
				"bytecode": {
					"linkReferences": {},
					"object": "60806040526001805534801561001457600080fd5b506001600060146101000a81548160ff0219169083151502179055506101e28061003f6000396000f3fe60806040526004361061002d5760003560e01c80633695dd4b14610036578063bb150fbf1461004d57610034565b3661003457005b005b34801561004257600080fd5b5061004b610057565b005b6100556100ec565b005b60001515600060149054906101000a900460ff1615151480156100c657506000809054906101000a900473ffffffffffffffffffffffffffffffffffffffff1673ffffffffffffffffffffffffffffffffffffffff163373ffffffffffffffffffffffffffffffffffffffff16145b6100cf57600080fd5b6001600060146101000a81548160ff021916908315150217905550565b60011515600060149054906101000a900460ff1615151461010c57600080fd5b34600260003373ffffffffffffffffffffffffffffffffffffffff1673ffffffffffffffffffffffffffffffffffffffff16815260200190815260200160002081905550336000806101000a81548173ffffffffffffffffffffffffffffffffffffffff021916908373ffffffffffffffffffffffffffffffffffffffff16021790555060008060146101000a81548160ff02191690831515021790555056fea264697066735822122041bebaddf6004ccdf771b3b43f1b397e2a95933f7bbfebf573c829b16c6c706664736f6c63430006000033",
					"opcodes": "PUSH1 0x80 PUSH1 0x40 MSTORE PUSH1 0x1 DUP1 SSTORE CALLVALUE DUP1 ISZERO PUSH2 0x14 JUMPI PUSH1 0x0 DUP1 REVERT JUMPDEST POP PUSH1 0x1 PUSH1 0x0 PUSH1 0x14 PUSH2 0x100 EXP DUP2 SLOAD DUP2 PUSH1 0xFF MUL NOT AND SWAP1 DUP4 ISZERO ISZERO MUL OR SWAP1 SSTORE POP PUSH2 0x1E2 DUP1 PUSH2 0x3F PUSH1 0x0 CODECOPY PUSH1 0x0 RETURN INVALID PUSH1 0x80 PUSH1 0x40 MSTORE PUSH1 0x4 CALLDATASIZE LT PUSH2 0x2D JUMPI PUSH1 0x0 CALLDATALOAD PUSH1 0xE0 SHR DUP1 PUSH4 0x3695DD4B EQ PUSH2 0x36 JUMPI DUP1 PUSH4 0xBB150FBF EQ PUSH2 0x4D JUMPI PUSH2 0x34 JUMP JUMPDEST CALLDATASIZE PUSH2 0x34 JUMPI STOP JUMPDEST STOP JUMPDEST CALLVALUE DUP1 ISZERO PUSH2 0x42 JUMPI PUSH1 0x0 DUP1 REVERT JUMPDEST POP PUSH2 0x4B PUSH2 0x57 JUMP JUMPDEST STOP JUMPDEST PUSH2 0x55 PUSH2 0xEC JUMP JUMPDEST STOP JUMPDEST PUSH1 0x0 ISZERO ISZERO PUSH1 0x0 PUSH1 0x14 SWAP1 SLOAD SWAP1 PUSH2 0x100 EXP SWAP1 DIV PUSH1 0xFF AND ISZERO ISZERO EQ DUP1 ISZERO PUSH2 0xC6 JUMPI POP PUSH1 0x0 DUP1 SWAP1 SLOAD SWAP1 PUSH2 0x100 EXP SWAP1 DIV PUSH20 0xFFFFFFFFFFFFFFFFFFFFFFFFFFFFFFFFFFFFFFFF AND PUSH20 0xFFFFFFFFFFFFFFFFFFFFFFFFFFFFFFFFFFFFFFFF AND CALLER PUSH20 0xFFFFFFFFFFFFFFFFFFFFFFFFFFFFFFFFFFFFFFFF AND EQ JUMPDEST PUSH2 0xCF JUMPI PUSH1 0x0 DUP1 REVERT JUMPDEST PUSH1 0x1 PUSH1 0x0 PUSH1 0x14 PUSH2 0x100 EXP DUP2 SLOAD DUP2 PUSH1 0xFF MUL NOT AND SWAP1 DUP4 ISZERO ISZERO MUL OR SWAP1 SSTORE POP JUMP JUMPDEST PUSH1 0x1 ISZERO ISZERO PUSH1 0x0 PUSH1 0x14 SWAP1 SLOAD SWAP1 PUSH2 0x100 EXP SWAP1 DIV PUSH1 0xFF AND ISZERO ISZERO EQ PUSH2 0x10C JUMPI PUSH1 0x0 DUP1 REVERT JUMPDEST CALLVALUE PUSH1 0x2 PUSH1 0x0 CALLER PUSH20 0xFFFFFFFFFFFFFFFFFFFFFFFFFFFFFFFFFFFFFFFF AND PUSH20 0xFFFFFFFFFFFFFFFFFFFFFFFFFFFFFFFFFFFFFFFF AND DUP2 MSTORE PUSH1 0x20 ADD SWAP1 DUP2 MSTORE PUSH1 0x20 ADD PUSH1 0x0 KECCAK256 DUP2 SWAP1 SSTORE POP CALLER PUSH1 0x0 DUP1 PUSH2 0x100 EXP DUP2 SLOAD DUP2 PUSH20 0xFFFFFFFFFFFFFFFFFFFFFFFFFFFFFFFFFFFFFFFF MUL NOT AND SWAP1 DUP4 PUSH20 0xFFFFFFFFFFFFFFFFFFFFFFFFFFFFFFFFFFFFFFFF AND MUL OR SWAP1 SSTORE POP PUSH1 0x0 DUP1 PUSH1 0x14 PUSH2 0x100 EXP DUP2 SLOAD DUP2 PUSH1 0xFF MUL NOT AND SWAP1 DUP4 ISZERO ISZERO MUL OR SWAP1 SSTORE POP JUMP INVALID LOG2 PUSH5 0x6970667358 0x22 SLT KECCAK256 COINBASE 0xBE 0xBA 0xDD 0xF6 STOP 0x4C 0xCD 0xF7 PUSH18 0xB3B43F1B397E2A95933F7BBFEBF573C829B1 PUSH13 0x6C706664736F6C634300060000 CALLER "
				},
				"gasEstimates": {
					"creation": {
						"codeDepositCost": "96400",
						"executionCost": "41070",
						"totalCost": "137470"
					},
					"external": {
						"": "107",
						"rent_out_resource()": "62926",
						"retrieve_resource()": "22838"
					}
				},
				"methodIdentifiers": {
					"rent_out_resource()": "bb150fbf",
					"retrieve_resource()": "3695dd4b"
				}
			},
			"storageLayout": {
				"storage": [
					{
						"astId": 304,
						"contract": "contracts/paylock.sol:Rental",
						"label": "resource_owner",
						"offset": 0,
						"slot": "0",
						"type": "t_address"
					},
					{
						"astId": 306,
						"contract": "contracts/paylock.sol:Rental",
						"label": "resource_available",
						"offset": 20,
						"slot": "0",
						"type": "t_bool"
					},
					{
						"astId": 309,
						"contract": "contracts/paylock.sol:Rental",
						"label": "deposit",
						"offset": 0,
						"slot": "1",
						"type": "t_uint256"
					},
					{
						"astId": 313,
						"contract": "contracts/paylock.sol:Rental",
						"label": "balanceOf",
						"offset": 0,
						"slot": "2",
						"type": "t_mapping(t_address,t_uint256)"
					}
				],
				"types": {
					"t_address": {
						"encoding": "inplace",
						"label": "address",
						"numberOfBytes": "20"
					},
					"t_bool": {
						"encoding": "inplace",
						"label": "bool",
						"numberOfBytes": "1"
					},
					"t_mapping(t_address,t_uint256)": {
						"encoding": "mapping",
						"key": "t_address",
						"label": "mapping(address => uint256)",
						"numberOfBytes": "32",
						"value": "t_uint256"
					},
					"t_uint256": {
						"encoding": "inplace",
						"label": "uint256",
						"numberOfBytes": "32"
					}
				}
			},
			"userdoc": {
				"methods": {}
			}
		}
	}
}