{
	"data": {
		"bytecode": {
			"linkReferences": {},
			"object": "608060405234801561001057600080fd5b506000600160006101000a81548160ff0219169083600581111561003057fe5b0217905550600080819055506102a28061004b6000396000f3fe608060405234801561001057600080fd5b50600436106100575760003560e01c80634c3bc76e1461005c578063640d090b1461006657806394f5c52d14610070578063953884de1461007a578063e3ed516614610084575b600080fd5b61006461008e565b005b61006e6100ee565b005b61007861014d565b005b6100826101ac565b005b61008c61020c565b005b6001600581111561009b57fe5b600160009054906101000a900460ff1660058111156100b657fe5b146100c057600080fd5b6002600160006101000a81548160ff021916908360058111156100df57fe5b0217905550600a600081905550565b600060058111156100fb57fe5b600160009054906101000a900460ff16600581111561011657fe5b1461012057600080fd5b60018060006101000a81548160ff0219169083600581111561013e57fe5b0217905550600a600081905550565b6003600581111561015a57fe5b600160009054906101000a900460ff16600581111561017557fe5b1461017f57600080fd5b6005600160006101000a81548160ff0219169083600581111561019e57fe5b021790555060008081905550565b600160058111156101b957fe5b600160009054906101000a900460ff1660058111156101d457fe5b146101de57600080fd5b6003600160006101000a81548160ff021916908360058111156101fd57fe5b02179055506005600081905550565b6003600581111561021957fe5b600160009054906101000a900460ff16600581111561023457fe5b1461023e57600080fd5b6004600160006101000a81548160ff0219169083600581111561025d57fe5b0217905550600560008190555056fea2646970667358221220224251da5de1b87a57734cef735fe9011610af7b25b90db9f43b6831c9df0d1b64736f6c63430006000033",
			"opcodes": "PUSH1 0x80 PUSH1 0x40 MSTORE CALLVALUE DUP1 ISZERO PUSH2 0x10 JUMPI PUSH1 0x0 DUP1 REVERT JUMPDEST POP PUSH1 0x0 PUSH1 0x1 PUSH1 0x0 PUSH2 0x100 EXP DUP2 SLOAD DUP2 PUSH1 0xFF MUL NOT AND SWAP1 DUP4 PUSH1 0x5 DUP2 GT ISZERO PUSH2 0x30 JUMPI INVALID JUMPDEST MUL OR SWAP1 SSTORE POP PUSH1 0x0 DUP1 DUP2 SWAP1 SSTORE POP PUSH2 0x2A2 DUP1 PUSH2 0x4B PUSH1 0x0 CODECOPY PUSH1 0x0 RETURN INVALID PUSH1 0x80 PUSH1 0x40 MSTORE CALLVALUE DUP1 ISZERO PUSH2 0x10 JUMPI PUSH1 0x0 DUP1 REVERT JUMPDEST POP PUSH1 0x4 CALLDATASIZE LT PUSH2 0x57 JUMPI PUSH1 0x0 CALLDATALOAD PUSH1 0xE0 SHR DUP1 PUSH4 0x4C3BC76E EQ PUSH2 0x5C JUMPI DUP1 PUSH4 0x640D090B EQ PUSH2 0x66 JUMPI DUP1 PUSH4 0x94F5C52D EQ PUSH2 0x70 JUMPI DUP1 PUSH4 0x953884DE EQ PUSH2 0x7A JUMPI DUP1 PUSH4 0xE3ED5166 EQ PUSH2 0x84 JUMPI JUMPDEST PUSH1 0x0 DUP1 REVERT JUMPDEST PUSH2 0x64 PUSH2 0x8E JUMP JUMPDEST STOP JUMPDEST PUSH2 0x6E PUSH2 0xEE JUMP JUMPDEST STOP JUMPDEST PUSH2 0x78 PUSH2 0x14D JUMP JUMPDEST STOP JUMPDEST PUSH2 0x82 PUSH2 0x1AC JUMP JUMPDEST STOP JUMPDEST PUSH2 0x8C PUSH2 0x20C JUMP JUMPDEST STOP JUMPDEST PUSH1 0x1 PUSH1 0x5 DUP2 GT ISZERO PUSH2 0x9B JUMPI INVALID JUMPDEST PUSH1 0x1 PUSH1 0x0 SWAP1 SLOAD SWAP1 PUSH2 0x100 EXP SWAP1 DIV PUSH1 0xFF AND PUSH1 0x5 DUP2 GT ISZERO PUSH2 0xB6 JUMPI INVALID JUMPDEST EQ PUSH2 0xC0 JUMPI PUSH1 0x0 DUP1 REVERT JUMPDEST PUSH1 0x2 PUSH1 0x1 PUSH1 0x0 PUSH2 0x100 EXP DUP2 SLOAD DUP2 PUSH1 0xFF MUL NOT AND SWAP1 DUP4 PUSH1 0x5 DUP2 GT ISZERO PUSH2 0xDF JUMPI INVALID JUMPDEST MUL OR SWAP1 SSTORE POP PUSH1 0xA PUSH1 0x0 DUP2 SWAP1 SSTORE POP JUMP JUMPDEST PUSH1 0x0 PUSH1 0x5 DUP2 GT ISZERO PUSH2 0xFB JUMPI INVALID JUMPDEST PUSH1 0x1 PUSH1 0x0 SWAP1 SLOAD SWAP1 PUSH2 0x100 EXP SWAP1 DIV PUSH1 0xFF AND PUSH1 0x5 DUP2 GT ISZERO PUSH2 0x116 JUMPI INVALID JUMPDEST EQ PUSH2 0x120 JUMPI PUSH1 0x0 DUP1 REVERT JUMPDEST PUSH1 0x1 DUP1 PUSH1 0x0 PUSH2 0x100 EXP DUP2 SLOAD DUP2 PUSH1 0xFF MUL NOT AND SWAP1 DUP4 PUSH1 0x5 DUP2 GT ISZERO PUSH2 0x13E JUMPI INVALID JUMPDEST MUL OR SWAP1 SSTORE POP PUSH1 0xA PUSH1 0x0 DUP2 SWAP1 SSTORE POP JUMP JUMPDEST PUSH1 0x3 PUSH1 0x5 DUP2 GT ISZERO PUSH2 0x15A JUMPI INVALID JUMPDEST PUSH1 0x1 PUSH1 0x0 SWAP1 SLOAD SWAP1 PUSH2 0x100 EXP SWAP1 DIV PUSH1 0xFF AND PUSH1 0x5 DUP2 GT ISZERO PUSH2 0x175 JUMPI INVALID JUMPDEST EQ PUSH2 0x17F JUMPI PUSH1 0x0 DUP1 REVERT JUMPDEST PUSH1 0x5 PUSH1 0x1 PUSH1 0x0 PUSH2 0x100 EXP DUP2 SLOAD DUP2 PUSH1 0xFF MUL NOT AND SWAP1 DUP4 PUSH1 0x5 DUP2 GT ISZERO PUSH2 0x19E JUMPI INVALID JUMPDEST MUL OR SWAP1 SSTORE POP PUSH1 0x0 DUP1 DUP2 SWAP1 SSTORE POP JUMP JUMPDEST PUSH1 0x1 PUSH1 0x5 DUP2 GT ISZERO PUSH2 0x1B9 JUMPI INVALID JUMPDEST PUSH1 0x1 PUSH1 0x0 SWAP1 SLOAD SWAP1 PUSH2 0x100 EXP SWAP1 DIV PUSH1 0xFF AND PUSH1 0x5 DUP2 GT ISZERO PUSH2 0x1D4 JUMPI INVALID JUMPDEST EQ PUSH2 0x1DE JUMPI PUSH1 0x0 DUP1 REVERT JUMPDEST PUSH1 0x3 PUSH1 0x1 PUSH1 0x0 PUSH2 0x100 EXP DUP2 SLOAD DUP2 PUSH1 0xFF MUL NOT AND SWAP1 DUP4 PUSH1 0x5 DUP2 GT ISZERO PUSH2 0x1FD JUMPI INVALID JUMPDEST MUL OR SWAP1 SSTORE POP PUSH1 0x5 PUSH1 0x0 DUP2 SWAP1 SSTORE POP JUMP JUMPDEST PUSH1 0x3 PUSH1 0x5 DUP2 GT ISZERO PUSH2 0x219 JUMPI INVALID JUMPDEST PUSH1 0x1 PUSH1 0x0 SWAP1 SLOAD SWAP1 PUSH2 0x100 EXP SWAP1 DIV PUSH1 0xFF AND PUSH1 0x5 DUP2 GT ISZERO PUSH2 0x234 JUMPI INVALID JUMPDEST EQ PUSH2 0x23E JUMPI PUSH1 0x0 DUP1 REVERT JUMPDEST PUSH1 0x4 PUSH1 0x1 PUSH1 0x0 PUSH2 0x100 EXP DUP2 SLOAD DUP2 PUSH1 0xFF MUL NOT AND SWAP1 DUP4 PUSH1 0x5 DUP2 GT ISZERO PUSH2 0x25D JUMPI INVALID JUMPDEST MUL OR SWAP1 SSTORE POP PUSH1 0x5 PUSH1 0x0 DUP2 SWAP1 SSTORE POP JUMP INVALID LOG2 PUSH5 0x6970667358 0x22 SLT KECCAK256 0x22 TIMESTAMP MLOAD 0xDA 0x5D 0xE1 0xB8 PUSH27 0x57734CEF735FE9011610AF7B25B90DB9F43B6831C9DF0D1B64736F PUSH13 0x63430006000033000000000000 "
		},
		"gasEstimates": {
			"creation": {
				"codeDepositCost": "134800",
				"executionCost": "26084",
				"totalCost": "160884"
			},
			"external": {
				"collect_1_N()": "42000",
				"collect_1_Y()": "41934",
				"collect_2_N()": "26978",
				"collect_2_Y()": "42022",
				"signal()": "41956"
			}
		},
		"methodIdentifiers": {
			"collect_1_N()": "953884de",
			"collect_1_Y()": "4c3bc76e",
			"collect_2_N()": "94f5c52d",
			"collect_2_Y()": "e3ed5166",
			"signal()": "640d090b"
		}
	},
	"abi": [
		{
			"inputs": [],
			"stateMutability": "nonpayable",
			"type": "constructor"
		},
		{
			"inputs": [],
			"name": "collect_1_N",
			"outputs": [],
			"stateMutability": "nonpayable",
			"type": "function"
		},
		{
			"inputs": [],
			"name": "collect_1_Y",
			"outputs": [],
			"stateMutability": "nonpayable",
			"type": "function"
		},
		{
			"inputs": [],
			"name": "collect_2_N",
			"outputs": [],
			"stateMutability": "nonpayable",
			"type": "function"
		},
		{
			"inputs": [],
			"name": "collect_2_Y",
			"outputs": [],
			"stateMutability": "nonpayable",
			"type": "function"
		},
		{
			"inputs": [],
			"name": "signal",
			"outputs": [],
			"stateMutability": "nonpayable",
			"type": "function"
		}
	]
}